{"contracts/DJZSStaking.sol":{"DJZSStaking":{"abi":[{"inputs":[{"internalType":"address","name":"_stakingToken","type":"address"},{"internalType":"uint256","name":"_minimumStake","type":"uint256"},{"internalType":"uint256","name":"_lockDuration","type":"uint256"}],"stateMutability":"nonpayable","type":"constructor"},{"inputs":[{"internalType":"address","name":"owner","type":"address"}],"name":"OwnableInvalidOwner","type":"error"},{"inputs":[{"internalType":"address","name":"account","type":"address"}],"name":"OwnableUnauthorizedAccount","type":"error"},{"inputs":[{"internalType":"address","name":"token","type":"address"}],"name":"SafeERC20FailedOperation","type":"error"},{"anonymous":false,"inputs":[{"indexed":false,"internalType":"uint256","name":"newDuration","type":"uint256"}],"name":"LockDurationUpdated","type":"event"},{"anonymous":false,"inputs":[{"indexed":false,"internalType":"uint256","name":"newMinimum","type":"uint256"}],"name":"MinimumStakeUpdated","type":"event"},{"anonymous":false,"inputs":[{"indexed":true,"internalType":"address","name":"previousOwner","type":"address"},{"indexed":true,"internalType":"address","name":"newOwner","type":"address"}],"name":"OwnershipTransferred","type":"event"},{"anonymous":false,"inputs":[{"indexed":true,"internalType":"address","name":"staker","type":"address"},{"indexed":false,"internalType":"uint256","name":"amount","type":"uint256"},{"indexed":false,"internalType":"string","name":"reason","type":"string"}],"name":"Slashed","type":"event"},{"anonymous":false,"inputs":[{"indexed":true,"internalType":"address","name":"staker","type":"address"},{"indexed":false,"internalType":"uint256","name":"amount","type":"uint256"},{"indexed":false,"internalType":"uint256","name":"lockUntil","type":"uint256"}],"name":"Staked","type":"event"},{"anonymous":false,"inputs":[{"indexed":true,"internalType":"address","name":"staker","type":"address"},{"indexed":false,"internalType":"uint256","name":"amount","type":"uint256"}],"name":"Unstaked","type":"event"},{"inputs":[{"internalType":"address","name":"staker","type":"address"}],"name":"getStake","outputs":[{"internalType":"uint256","name":"amount","type":"uint256"},{"internalType":"uint256","name":"stakedAt","type":"uint256"},{"internalType":"uint256","name":"lockUntil","type":"uint256"},{"internalType":"bool","name":"active","type":"bool"}],"stateMutability":"view","type":"function"},{"inputs":[{"internalType":"address","name":"","type":"address"}],"name":"isStaker","outputs":[{"internalType":"bool","name":"","type":"bool"}],"stateMutability":"view","type":"function"},{"inputs":[],"name":"lockDuration","outputs":[{"internalType":"uint256","name":"","type":"uint256"}],"stateMutability":"view","type":"function"},{"inputs":[],"name":"minimumStake","outputs":[{"internalType":"uint256","name":"","type":"uint256"}],"stateMutability":"view","type":"function"},{"inputs":[],"name":"owner","outputs":[{"internalType":"address","name":"","type":"address"}],"stateMutability":"view","type":"function"},{"inputs":[],"name":"renounceOwnership","outputs":[],"stateMutability":"nonpayable","type":"function"},{"inputs":[{"internalType":"uint256","name":"_lockDuration","type":"uint256"}],"name":"setLockDuration","outputs":[],"stateMutability":"nonpayable","type":"function"},{"inputs":[{"internalType":"uint256","name":"_minimumStake","type":"uint256"}],"name":"setMinimumStake","outputs":[],"stateMutability":"nonpayable","type":"function"},{"inputs":[{"internalType":"address","name":"staker","type":"address"},{"internalType":"uint256","name":"amount","type":"uint256"},{"internalType":"string","name":"reason","type":"string"}],"name":"slash","outputs":[],"stateMutability":"nonpayable","type":"function"},{"inputs":[{"internalType":"uint256","name":"amount","type":"uint256"}],"name":"stake","outputs":[],"stateMutability":"nonpayable","type":"function"},{"inputs":[{"internalType":"address","name":"","type":"address"}],"name":"stakes","outputs":[{"internalType":"uint256","name":"amount","type":"uint256"},{"internalType":"uint256","name":"stakedAt","type":"uint256"},{"internalType":"uint256","name":"lockUntil","type":"uint256"},{"internalType":"bool","name":"active","type":"bool"}],"stateMutability":"view","type":"function"},{"inputs":[],"name":"stakingToken","outputs":[{"internalType":"contract IERC20","name":"","type":"address"}],"stateMutability":"view","type":"function"},{"inputs":[],"name":"totalStaked","outputs":[{"internalType":"uint256","name":"","type":"uint256"}],"stateMutability":"view","type":"function"},{"inputs":[{"internalType":"address","name":"newOwner","type":"address"}],"name":"transferOwnership","outputs":[],"stateMutability":"nonpayable","type":"function"},{"inputs":[],"name":"unstake","outputs":[],"stateMutability":"nonpayable","type":"function"}],"evm":{"bytecode":{"linkReferences":{},"object":"60a060405234801561001057600080fd5b50604051610cff380380610cff83398101604081905261002f916100c8565b338061005557604051631e4fbdf760e01b81526000600482015260240160405180910390fd5b61005e81610078565b506001600160a01b0390921660805260015560025561010b565b600080546001600160a01b038381166001600160a01b0319831681178455604051919092169283917f8be0079c531659141344cd1fd0a4f28419497f9722a3daafe3b4186f6b6457e09190a35050565b6000806000606084860312156100dd57600080fd5b83516001600160a01b03811681146100f457600080fd5b602085015160409095015190969495509392505050565b608051610bc461013b600039600081816101f301528181610405015281816105f1015261073a0152610bc46000f3fe608060405234801561001057600080fd5b50600436106100f55760003560e01c8063715018a6116100975780638da5cb5b116100665780638da5cb5b14610278578063a694fc3a14610289578063ec5ffac21461029c578063f2fde38b146102a557600080fd5b8063715018a6146101e657806372f702f3146101ee5780637a7664601461022d578063817b1cd21461026f57600080fd5b80632def6620116100d35780632def6620146101855780634eb665af1461018d578063678b3ee2146101a05780636f1e8533146101b357600080fd5b806304554443146100fa57806316934fc414610116578063233e990314610170575b600080fd5b61010360025481565b6040519081526020015b60405180910390f35b61014e610124366004610a54565b60046020526000908152604090208054600182015460028301546003909301549192909160ff1684565b604080519485526020850193909352918301521515606082015260800161010d565b61018361017e366004610a76565b6102b8565b005b6101836102fc565b61018361019b366004610a76565b610466565b6101836101ae366004610a8f565b6104a3565b6101d66101c1366004610a54565b60056020526000908152604090205460ff1681565b604051901515815260200161010d565b610183610664565b6102157f000000000000000000000000000000000000000000000000000000000000000081565b6040516001600160a01b03909116815260200161010d565b61014e61023b366004610a54565b6001600160a01b03166000908152600460205260409020805460018201546002830154600390930154919390929160ff1690565b61010360035481565b6000546001600160a01b0316610215565b610183610297366004610a76565b610678565b61010360015481565b6101836102b3366004610a54565b61082f565b6102c061086d565b60018190556040518181527ff4045d7dd317de89564c3f12c35961242ed2a4dce3ae4e7a75847ffa04bb0834906020015b60405180910390a150565b336000908152600460205260409020600381015460ff166103645760405162461bcd60e51b815260206004820152601c60248201527f444a5a535374616b696e673a206e6f20616374697665207374616b650000000060448201526064015b60405180910390fd5b80600201544210156103b85760405162461bcd60e51b815260206004820152601960248201527f444a5a535374616b696e673a207374696c6c206c6f636b656400000000000000604482015260640161035b565b80546003808301805460ff1990811690915533600090815260056020526040812080549092169091558154839291906103f2908490610b2c565b9091555061042c90506001600160a01b037f000000000000000000000000000000000000000000000000000000000000000016338361089a565b60405181815233907f0f5bb82176feb1b5e747e28471aa92156a04d9f3ab9f45f28e2d704232b93f75906020015b60405180910390a25050565b61046e61086d565b60028190556040518181527f3e062f634a950eae456fa5f8fb53a4f59f55039983bd73df7a34a313b75443d4906020016102f1565b6104ab61086d565b6001600160a01b0384166000908152600460205260409020600381015460ff166105175760405162461bcd60e51b815260206004820152601c60248201527f444a5a535374616b696e673a206e6f20616374697665207374616b6500000000604482015260640161035b565b80548411156105685760405162461bcd60e51b815260206004820181905260248201527f444a5a535374616b696e673a20736c6173682065786365656473207374616b65604482015260640161035b565b8381600001600082825461057c9190610b2c565b9250508190555083600360008282546105959190610b2c565b909155505080546000036105d25760038101805460ff199081169091556001600160a01b0386166000908152600560205260409020805490911690555b6106186105e76000546001600160a01b031690565b6001600160a01b037f000000000000000000000000000000000000000000000000000000000000000016908661089a565b846001600160a01b03167f7e947095ed288d8885423bdaef4015b7420ffa9b84d62ef67c402e8bc36a8ea985858560405161065593929190610b45565b60405180910390a25050505050565b61066c61086d565b61067660006108d4565b565b6001548110156106ca5760405162461bcd60e51b815260206004820181905260248201527f444a5a535374616b696e673a2062656c6f77206d696e696d756d207374616b65604482015260640161035b565b3360009081526004602052604090206003015460ff161561072d5760405162461bcd60e51b815260206004820152601b60248201527f444a5a535374616b696e673a20616c7265616479207374616b65640000000000604482015260640161035b565b6107626001600160a01b037f000000000000000000000000000000000000000000000000000000000000000016333084610924565b6000600254426107729190610b7b565b6040805160808101825284815242602080830191825282840185815260016060850181815233600090815260048552878120965187559451868301559151600286015590516003948501805491151560ff1992831617905560059092529382208054909116909317909255805492935084929091906107f2908490610b7b565b9091555050604080518381526020810183905233917f1449c6dd7851abc30abf37f57715f492010519147cc2652fbc38202c18a6ee90910161045a565b61083761086d565b6001600160a01b03811661086157604051631e4fbdf760e01b81526000600482015260240161035b565b61086a816108d4565b50565b6000546001600160a01b031633146106765760405163118cdaa760e01b815233600482015260240161035b565b6108a78383836001610960565b6108cf57604051635274afe760e01b81526001600160a01b038416600482015260240161035b565b505050565b600080546001600160a01b038381166001600160a01b0319831681178455604051919092169283917f8be0079c531659141344cd1fd0a4f28419497f9722a3daafe3b4186f6b6457e09190a35050565b6109328484848460016109c6565b61095a57604051635274afe760e01b81526001600160a01b038516600482015260240161035b565b50505050565b60405163a9059cbb60e01b60008181526001600160a01b038616600452602485905291602083604481808b5af1925060016000511483166109ba5783831516156109ad573d6000823e3d81fd5b6000873b113d1516831692505b60405250949350505050565b6040516323b872dd60e01b60008181526001600160a01b038781166004528616602452604485905291602083606481808c5af192506001600051148316610a26578383151615610a19573d6000823e3d81fd5b6000883b113d1516831692505b60405250600060605295945050505050565b80356001600160a01b0381168114610a4f57600080fd5b919050565b600060208284031215610a6657600080fd5b610a6f82610a38565b9392505050565b600060208284031215610a8857600080fd5b5035919050565b60008060008060608587031215610aa557600080fd5b610aae85610a38565b935060208501359250604085013567ffffffffffffffff80821115610ad257600080fd5b818701915087601f830112610ae657600080fd5b813581811115610af557600080fd5b886020828501011115610b0757600080fd5b95989497505060200194505050565b634e487b7160e01b600052601160045260246000fd5b81810381811115610b3f57610b3f610b16565b92915050565b83815260406020820152816040820152818360608301376000818301606090810191909152601f909201601f1916010192915050565b80820180821115610b3f57610b3f610b1656fea2646970667358221220a55fd03dcb9b37111740c0ada04e2329cab798b8ab6df591e64ee0e720c59b3e64736f6c63430008140033","opcodes":"PUSH1 0xA0 PUSH1 0x40 MSTORE CALLVALUE DUP1 ISZERO PUSH2 0x10 JUMPI PUSH1 0x0 DUP1 REVERT JUMPDEST POP PUSH1 0x40 MLOAD PUSH2 0xCFF CODESIZE SUB DUP1 PUSH2 0xCFF DUP4 CODECOPY DUP2 ADD PUSH1 0x40 DUP2 SWAP1 MSTORE PUSH2 0x2F SWAP2 PUSH2 0xC8 JUMP JUMPDEST CALLER DUP1 PUSH2 0x55 JUMPI PUSH1 0x40 MLOAD PUSH4 0x1E4FBDF7 PUSH1 0xE0 SHL DUP2 MSTORE PUSH1 0x0 PUSH1 0x4 DUP3 ADD MSTORE PUSH1 0x24 ADD PUSH1 0x40 MLOAD DUP1 SWAP2 SUB SWAP1 REVERT JUMPDEST PUSH2 0x5E DUP2 PUSH2 0x78 JUMP JUMPDEST POP PUSH1 0x1 PUSH1 0x1 PUSH1 0xA0 SHL SUB SWAP1 SWAP3 AND PUSH1 0x80 MSTORE PUSH1 0x1 SSTORE PUSH1 0x2 SSTORE PUSH2 0x10B JUMP JUMPDEST PUSH1 0x0 DUP1 SLOAD PUSH1 0x1 PUSH1 0x1 PUSH1 0xA0 SHL SUB DUP4 DUP2 AND PUSH1 0x1 PUSH1 0x1 PUSH1 0xA0 SHL SUB NOT DUP4 AND DUP2 OR DUP5 SSTORE PUSH1 0x40 MLOAD SWAP2 SWAP1 SWAP3 AND SWAP3 DUP4 SWAP2 PUSH32 0x8BE0079C531659141344CD1FD0A4F28419497F9722A3DAAFE3B4186F6B6457E0 SWAP2 SWAP1 LOG3 POP POP JUMP JUMPDEST PUSH1 0x0 DUP1 PUSH1 0x0 PUSH1 0x60 DUP5 DUP7 SUB SLT ISZERO PUSH2 0xDD JUMPI PUSH1 0x0 DUP1 REVERT JUMPDEST DUP4 MLOAD PUSH1 0x1 PUSH1 0x1 PUSH1 0xA0 SHL SUB DUP2 AND DUP2 EQ PUSH2 0xF4 JUMPI PUSH1 0x0 DUP1 REVERT JUMPDEST PUSH1 0x20 DUP6 ADD MLOAD PUSH1 0x40 SWAP1 SWAP6 ADD MLOAD SWAP1 SWAP7 SWAP5 SWAP6 POP SWAP4 SWAP3 POP POP POP JUMP JUMPDEST PUSH1 0x80 MLOAD PUSH2 0xBC4 PUSH2 0x13B PUSH1 0x0 CODECOPY PUSH1 0x0 DUP2 DUP2 PUSH2 0x1F3 ADD MSTORE DUP2 DUP2 PUSH2 0x405 ADD MSTORE DUP2 DUP2 PUSH2 0x5F1 ADD MSTORE PUSH2 0x73A ADD MSTORE PUSH2 0xBC4 PUSH1 0x0 RETURN INVALID PUSH1 0x80 PUSH1 0x40 MSTORE CALLVALUE DUP1 ISZERO PUSH2 0x10 JUMPI PUSH1 0x0 DUP1 REVERT JUMPDEST POP PUSH1 0x4 CALLDATASIZE LT PUSH2 0xF5 JUMPI PUSH1 0x0 CALLDATALOAD PUSH1 0xE0 SHR DUP1 PUSH4 0x715018A6 GT PUSH2 0x97 JUMPI DUP1 PUSH4 0x8DA5CB5B GT PUSH2 0x66 JUMPI DUP1 PUSH4 0x8DA5CB5B EQ PUSH2 0x278 JUMPI DUP1 PUSH4 0xA694FC3A EQ PUSH2 0x289 JUMPI DUP1 PUSH4 0xEC5FFAC2 EQ PUSH2 0x29C JUMPI DUP1 PUSH4 0xF2FDE38B EQ PUSH2 0x2A5 JUMPI PUSH1 0x0 DUP1 REVERT JUMPDEST DUP1 PUSH4 0x715018A6 EQ PUSH2 0x1E6 JUMPI DUP1 PUSH4 0x72F702F3 EQ PUSH2 0x1EE JUMPI DUP1 PUSH4 0x7A766460 EQ PUSH2 0x22D JUMPI DUP1 PUSH4 0x817B1CD2 EQ PUSH2 0x26F JUMPI PUSH1 0x0 DUP1 REVERT JUMPDEST DUP1 PUSH4 0x2DEF6620 GT PUSH2 0xD3 JUMPI DUP1 PUSH4 0x2DEF6620 EQ PUSH2 0x185 JUMPI DUP1 PUSH4 0x4EB665AF EQ PUSH2 0x18D JUMPI DUP1 PUSH4 0x678B3EE2 EQ PUSH2 0x1A0 JUMPI DUP1 PUSH4 0x6F1E8533 EQ PUSH2 0x1B3 JUMPI PUSH1 0x0 DUP1 REVERT JUMPDEST DUP1 PUSH4 0x4554443 EQ PUSH2 0xFA JUMPI DUP1 PUSH4 0x16934FC4 EQ PUSH2 0x116 JUMPI DUP1 PUSH4 0x233E9903 EQ PUSH2 0x170 JUMPI JUMPDEST PUSH1 0x0 DUP1 REVERT JUMPDEST PUSH2 0x103 PUSH1 0x2 SLOAD DUP2 JUMP JUMPDEST PUSH1 0x40 MLOAD SWAP1 DUP2 MSTORE PUSH1 0x20 ADD JUMPDEST PUSH1 0x40 MLOAD DUP1 SWAP2 SUB SWAP1 RETURN JUMPDEST PUSH2 0x14E PUSH2 0x124 CALLDATASIZE PUSH1 0x4 PUSH2 0xA54 JUMP JUMPDEST PUSH1 0x4 PUSH1 0x20 MSTORE PUSH1 0x0 SWAP1 DUP2 MSTORE PUSH1 0x40 SWAP1 KECCAK256 DUP1 SLOAD PUSH1 0x1 DUP3 ADD SLOAD PUSH1 0x2 DUP4 ADD SLOAD PUSH1 0x3 SWAP1 SWAP4 ADD SLOAD SWAP2 SWAP3 SWAP1 SWAP2 PUSH1 0xFF AND DUP5 JUMP JUMPDEST PUSH1 0x40 DUP1 MLOAD SWAP5 DUP6 MSTORE PUSH1 0x20 DUP6 ADD SWAP4 SWAP1 SWAP4 MSTORE SWAP2 DUP4 ADD MSTORE ISZERO ISZERO PUSH1 0x60 DUP3 ADD MSTORE PUSH1 0x80 ADD PUSH2 0x10D JUMP JUMPDEST PUSH2 0x183 PUSH2 0x17E CALLDATASIZE PUSH1 0x4 PUSH2 0xA76 JUMP JUMPDEST PUSH2 0x2B8 JUMP JUMPDEST STOP JUMPDEST PUSH2 0x183 PUSH2 0x2FC JUMP JUMPDEST PUSH2 0x183 PUSH2 0x19B CALLDATASIZE PUSH1 0x4 PUSH2 0xA76 JUMP JUMPDEST PUSH2 0x466 JUMP JUMPDEST PUSH2 0x183 PUSH2 0x1AE CALLDATASIZE PUSH1 0x4 PUSH2 0xA8F JUMP JUMPDEST PUSH2 0x4A3 JUMP JUMPDEST PUSH2 0x1D6 PUSH2 0x1C1 CALLDATASIZE PUSH1 0x4 PUSH2 0xA54 JUMP JUMPDEST PUSH1 0x5 PUSH1 0x20 MSTORE PUSH1 0x0 SWAP1 DUP2 MSTORE PUSH1 0x40 SWAP1 KECCAK256 SLOAD PUSH1 0xFF AND DUP2 JUMP JUMPDEST PUSH1 0x40 MLOAD SWAP1 ISZERO ISZERO DUP2 MSTORE PUSH1 0x20 ADD PUSH2 0x10D JUMP JUMPDEST PUSH2 0x183 PUSH2 0x664 JUMP JUMPDEST PUSH2 0x215 PUSH32 0x0 DUP2 JUMP JUMPDEST PUSH1 0x40 MLOAD PUSH1 0x1 PUSH1 0x1 PUSH1 0xA0 SHL SUB SWAP1 SWAP2 AND DUP2 MSTORE PUSH1 0x20 ADD PUSH2 0x10D JUMP JUMPDEST PUSH2 0x14E PUSH2 0x23B CALLDATASIZE PUSH1 0x4 PUSH2 0xA54 JUMP JUMPDEST PUSH1 0x1 PUSH1 0x1 PUSH1 0xA0 SHL SUB AND PUSH1 0x0 SWAP1 DUP2 MSTORE PUSH1 0x4 PUSH1 0x20 MSTORE PUSH1 0x40 SWAP1 KECCAK256 DUP1 SLOAD PUSH1 0x1 DUP3 ADD SLOAD PUSH1 0x2 DUP4 ADD SLOAD PUSH1 0x3 SWAP1 SWAP4 ADD SLOAD SWAP2 SWAP4 SWAP1 SWAP3 SWAP2 PUSH1 0xFF AND SWAP1 JUMP JUMPDEST PUSH2 0x103 PUSH1 0x3 SLOAD DUP2 JUMP JUMPDEST PUSH1 0x0 SLOAD PUSH1 0x1 PUSH1 0x1 PUSH1 0xA0 SHL SUB AND PUSH2 0x215 JUMP JUMPDEST PUSH2 0x183 PUSH2 0x297 CALLDATASIZE PUSH1 0x4 PUSH2 0xA76 JUMP JUMPDEST PUSH2 0x678 JUMP JUMPDEST PUSH2 0x103 PUSH1 0x1 SLOAD DUP2 JUMP JUMPDEST PUSH2 0x183 PUSH2 0x2B3 CALLDATASIZE PUSH1 0x4 PUSH2 0xA54 JUMP JUMPDEST PUSH2 0x82F JUMP JUMPDEST PUSH2 0x2C0 PUSH2 0x86D JUMP JUMPDEST PUSH1 0x1 DUP2 SWAP1 SSTORE PUSH1 0x40 MLOAD DUP2 DUP2 MSTORE PUSH32 0xF4045D7DD317DE89564C3F12C35961242ED2A4DCE3AE4E7A75847FFA04BB0834 SWAP1 PUSH1 0x20 ADD JUMPDEST PUSH1 0x40 MLOAD DUP1 SWAP2 SUB SWAP1 LOG1 POP JUMP JUMPDEST CALLER PUSH1 0x0 SWAP1 DUP2 MSTORE PUSH1 0x4 PUSH1 0x20 MSTORE PUSH1 0x40 SWAP1 KECCAK256 PUSH1 0x3 DUP2 ADD SLOAD PUSH1 0xFF AND PUSH2 0x364 JUMPI PUSH1 0x40 MLOAD PUSH3 0x461BCD PUSH1 0xE5 SHL DUP2 MSTORE PUSH1 0x20 PUSH1 0x4 DUP3 ADD MSTORE PUSH1 0x1C PUSH1 0x24 DUP3 ADD MSTORE PUSH32 0x444A5A535374616B696E673A206E6F20616374697665207374616B6500000000 PUSH1 0x44 DUP3 ADD MSTORE PUSH1 0x64 ADD JUMPDEST PUSH1 0x40 MLOAD DUP1 SWAP2 SUB SWAP1 REVERT JUMPDEST DUP1 PUSH1 0x2 ADD SLOAD TIMESTAMP LT ISZERO PUSH2 0x3B8 JUMPI PUSH1 0x40 MLOAD PUSH3 0x461BCD PUSH1 0xE5 SHL DUP2 MSTORE PUSH1 0x20 PUSH1 0x4 DUP3 ADD MSTORE PUSH1 0x19 PUSH1 0x24 DUP3 ADD MSTORE PUSH32 0x444A5A535374616B696E673A207374696C6C206C6F636B656400000000000000 PUSH1 0x44 DUP3 ADD MSTORE PUSH1 0x64 ADD PUSH2 0x35B JUMP JUMPDEST DUP1 SLOAD PUSH1 0x3 DUP1 DUP4 ADD DUP1 SLOAD PUSH1 0xFF NOT SWAP1 DUP2 AND SWAP1 SWAP2 SSTORE CALLER PUSH1 0x0 SWAP1 DUP2 MSTORE PUSH1 0x5 PUSH1 0x20 MSTORE PUSH1 0x40 DUP2 KECCAK256 DUP1 SLOAD SWAP1 SWAP3 AND SWAP1 SWAP2 SSTORE DUP2 SLOAD DUP4 SWAP3 SWAP2 SWAP1 PUSH2 0x3F2 SWAP1 DUP5 SWAP1 PUSH2 0xB2C JUMP JUMPDEST SWAP1 SWAP2 SSTORE POP PUSH2 0x42C SWAP1 POP PUSH1 0x1 PUSH1 0x1 PUSH1 0xA0 SHL SUB PUSH32 0x0 AND CALLER DUP4 PUSH2 0x89A JUMP JUMPDEST PUSH1 0x40 MLOAD DUP2 DUP2 MSTORE CALLER SWAP1 PUSH32 0xF5BB82176FEB1B5E747E28471AA92156A04D9F3AB9F45F28E2D704232B93F75 SWAP1 PUSH1 0x20 ADD JUMPDEST PUSH1 0x40 MLOAD DUP1 SWAP2 SUB SWAP1 LOG2 POP POP JUMP JUMPDEST PUSH2 0x46E PUSH2 0x86D JUMP JUMPDEST PUSH1 0x2 DUP2 SWAP1 SSTORE PUSH1 0x40 MLOAD DUP2 DUP2 MSTORE PUSH32 0x3E062F634A950EAE456FA5F8FB53A4F59F55039983BD73DF7A34A313B75443D4 SWAP1 PUSH1 0x20 ADD PUSH2 0x2F1 JUMP JUMPDEST PUSH2 0x4AB PUSH2 0x86D JUMP JUMPDEST PUSH1 0x1 PUSH1 0x1 PUSH1 0xA0 SHL SUB DUP5 AND PUSH1 0x0 SWAP1 DUP2 MSTORE PUSH1 0x4 PUSH1 0x20 MSTORE PUSH1 0x40 SWAP1 KECCAK256 PUSH1 0x3 DUP2 ADD SLOAD PUSH1 0xFF AND PUSH2 0x517 JUMPI PUSH1 0x40 MLOAD PUSH3 0x461BCD PUSH1 0xE5 SHL DUP2 MSTORE PUSH1 0x20 PUSH1 0x4 DUP3 ADD MSTORE PUSH1 0x1C PUSH1 0x24 DUP3 ADD MSTORE PUSH32 0x444A5A535374616B696E673A206E6F20616374697665207374616B6500000000 PUSH1 0x44 DUP3 ADD MSTORE PUSH1 0x64 ADD PUSH2 0x35B JUMP JUMPDEST DUP1 SLOAD DUP5 GT ISZERO PUSH2 0x568 JUMPI PUSH1 0x40 MLOAD PUSH3 0x461BCD PUSH1 0xE5 SHL DUP2 MSTORE PUSH1 0x20 PUSH1 0x4 DUP3 ADD DUP2 SWAP1 MSTORE PUSH1 0x24 DUP3 ADD MSTORE PUSH32 0x444A5A535374616B696E673A20736C6173682065786365656473207374616B65 PUSH1 0x44 DUP3 ADD MSTORE PUSH1 0x64 ADD PUSH2 0x35B JUMP JUMPDEST DUP4 DUP2 PUSH1 0x0 ADD PUSH1 0x0 DUP3 DUP3 SLOAD PUSH2 0x57C SWAP2 SWAP1 PUSH2 0xB2C JUMP JUMPDEST SWAP3 POP POP DUP2 SWAP1 SSTORE POP DUP4 PUSH1 0x3 PUSH1 0x0 DUP3 DUP3 SLOAD PUSH2 0x595 SWAP2 SWAP1 PUSH2 0xB2C JUMP JUMPDEST SWAP1 SWAP2 SSTORE POP POP DUP1 SLOAD PUSH1 0x0 SUB PUSH2 0x5D2 JUMPI PUSH1 0x3 DUP2 ADD DUP1 SLOAD PUSH1 0xFF NOT SWAP1 DUP2 AND SWAP1 SWAP2 SSTORE PUSH1 0x1 PUSH1 0x1 PUSH1 0xA0 SHL SUB DUP7 AND PUSH1 0x0 SWAP1 DUP2 MSTORE PUSH1 0x5 PUSH1 0x20 MSTORE PUSH1 0x40 SWAP1 KECCAK256 DUP1 SLOAD SWAP1 SWAP2 AND SWAP1 SSTORE JUMPDEST PUSH2 0x618 PUSH2 0x5E7 PUSH1 0x0 SLOAD PUSH1 0x1 PUSH1 0x1 PUSH1 0xA0 SHL SUB AND SWAP1 JUMP JUMPDEST PUSH1 0x1 PUSH1 0x1 PUSH1 0xA0 SHL SUB PUSH32 0x0 AND SWAP1 DUP7 PUSH2 0x89A JUMP JUMPDEST DUP5 PUSH1 0x1 PUSH1 0x1 PUSH1 0xA0 SHL SUB AND PUSH32 0x7E947095ED288D8885423BDAEF4015B7420FFA9B84D62EF67C402E8BC36A8EA9 DUP6 DUP6 DUP6 PUSH1 0x40 MLOAD PUSH2 0x655 SWAP4 SWAP3 SWAP2 SWAP1 PUSH2 0xB45 JUMP JUMPDEST PUSH1 0x40 MLOAD DUP1 SWAP2 SUB SWAP1 LOG2 POP POP POP POP POP JUMP JUMPDEST PUSH2 0x66C PUSH2 0x86D JUMP JUMPDEST PUSH2 0x676 PUSH1 0x0 PUSH2 0x8D4 JUMP JUMPDEST JUMP JUMPDEST PUSH1 0x1 SLOAD DUP2 LT ISZERO PUSH2 0x6CA JUMPI PUSH1 0x40 MLOAD PUSH3 0x461BCD PUSH1 0xE5 SHL DUP2 MSTORE PUSH1 0x20 PUSH1 0x4 DUP3 ADD DUP2 SWAP1 MSTORE PUSH1 0x24 DUP3 ADD MSTORE PUSH32 0x444A5A535374616B696E673A2062656C6F77206D696E696D756D207374616B65 PUSH1 0x44 DUP3 ADD MSTORE PUSH1 0x64 ADD PUSH2 0x35B JUMP JUMPDEST CALLER PUSH1 0x0 SWAP1 DUP2 MSTORE PUSH1 0x4 PUSH1 0x20 MSTORE PUSH1 0x40 SWAP1 KECCAK256 PUSH1 0x3 ADD SLOAD PUSH1 0xFF AND ISZERO PUSH2 0x72D JUMPI PUSH1 0x40 MLOAD PUSH3 0x461BCD PUSH1 0xE5 SHL DUP2 MSTORE PUSH1 0x20 PUSH1 0x4 DUP3 ADD MSTORE PUSH1 0x1B PUSH1 0x24 DUP3 ADD MSTORE PUSH32 0x444A5A535374616B696E673A20616C7265616479207374616B65640000000000 PUSH1 0x44 DUP3 ADD MSTORE PUSH1 0x64 ADD PUSH2 0x35B JUMP JUMPDEST PUSH2 0x762 PUSH1 0x1 PUSH1 0x1 PUSH1 0xA0 SHL SUB PUSH32 0x0 AND CALLER ADDRESS DUP5 PUSH2 0x924 JUMP JUMPDEST PUSH1 0x0 PUSH1 0x2 SLOAD TIMESTAMP PUSH2 0x772 SWAP2 SWAP1 PUSH2 0xB7B JUMP JUMPDEST PUSH1 0x40 DUP1 MLOAD PUSH1 0x80 DUP2 ADD DUP3 MSTORE DUP5 DUP2 MSTORE TIMESTAMP PUSH1 0x20 DUP1 DUP4 ADD SWAP2 DUP3 MSTORE DUP3 DUP5 ADD DUP6 DUP2 MSTORE PUSH1 0x1 PUSH1 0x60 DUP6 ADD DUP2 DUP2 MSTORE CALLER PUSH1 0x0 SWAP1 DUP2 MSTORE PUSH1 0x4 DUP6 MSTORE DUP8 DUP2 KECCAK256 SWAP7 MLOAD DUP8 SSTORE SWAP5 MLOAD DUP7 DUP4 ADD SSTORE SWAP2 MLOAD PUSH1 0x2 DUP7 ADD SSTORE SWAP1 MLOAD PUSH1 0x3 SWAP5 DUP6 ADD DUP1 SLOAD SWAP2 ISZERO ISZERO PUSH1 0xFF NOT SWAP3 DUP4 AND OR SWAP1 SSTORE PUSH1 0x5 SWAP1 SWAP3 MSTORE SWAP4 DUP3 KECCAK256 DUP1 SLOAD SWAP1 SWAP2 AND SWAP1 SWAP4 OR SWAP1 SWAP3 SSTORE DUP1 SLOAD SWAP3 SWAP4 POP DUP5 SWAP3 SWAP1 SWAP2 SWAP1 PUSH2 0x7F2 SWAP1 DUP5 SWAP1 PUSH2 0xB7B JUMP JUMPDEST SWAP1 SWAP2 SSTORE POP POP PUSH1 0x40 DUP1 MLOAD DUP4 DUP2 MSTORE PUSH1 0x20 DUP2 ADD DUP4 SWAP1 MSTORE CALLER SWAP2 PUSH32 0x1449C6DD7851ABC30ABF37F57715F492010519147CC2652FBC38202C18A6EE90 SWAP2 ADD PUSH2 0x45A JUMP JUMPDEST PUSH2 0x837 PUSH2 0x86D JUMP JUMPDEST PUSH1 0x1 PUSH1 0x1 PUSH1 0xA0 SHL SUB DUP2 AND PUSH2 0x861 JUMPI PUSH1 0x40 MLOAD PUSH4 0x1E4FBDF7 PUSH1 0xE0 SHL DUP2 MSTORE PUSH1 0x0 PUSH1 0x4 DUP3 ADD MSTORE PUSH1 0x24 ADD PUSH2 0x35B JUMP JUMPDEST PUSH2 0x86A DUP2 PUSH2 0x8D4 JUMP JUMPDEST POP JUMP JUMPDEST PUSH1 0x0 SLOAD PUSH1 0x1 PUSH1 0x1 PUSH1 0xA0 SHL SUB AND CALLER EQ PUSH2 0x676 JUMPI PUSH1 0x40 MLOAD PUSH4 0x118CDAA7 PUSH1 0xE0 SHL DUP2 MSTORE CALLER PUSH1 0x4 DUP3 ADD MSTORE PUSH1 0x24 ADD PUSH2 0x35B JUMP JUMPDEST PUSH2 0x8A7 DUP4 DUP4 DUP4 PUSH1 0x1 PUSH2 0x960 JUMP JUMPDEST PUSH2 0x8CF JUMPI PUSH1 0x40 MLOAD PUSH4 0x5274AFE7 PUSH1 0xE0 SHL DUP2 MSTORE PUSH1 0x1 PUSH1 0x1 PUSH1 0xA0 SHL SUB DUP5 AND PUSH1 0x4 DUP3 ADD MSTORE PUSH1 0x24 ADD PUSH2 0x35B JUMP JUMPDEST POP POP POP JUMP JUMPDEST PUSH1 0x0 DUP1 SLOAD PUSH1 0x1 PUSH1 0x1 PUSH1 0xA0 SHL SUB DUP4 DUP2 AND PUSH1 0x1 PUSH1 0x1 PUSH1 0xA0 SHL SUB NOT DUP4 AND DUP2 OR DUP5 SSTORE PUSH1 0x40 MLOAD SWAP2 SWAP1 SWAP3 AND SWAP3 DUP4 SWAP2 PUSH32 0x8BE0079C531659141344CD1FD0A4F28419497F9722A3DAAFE3B4186F6B6457E0 SWAP2 SWAP1 LOG3 POP POP JUMP JUMPDEST PUSH2 0x932 DUP5 DUP5 DUP5 DUP5 PUSH1 0x1 PUSH2 0x9C6 JUMP JUMPDEST PUSH2 0x95A JUMPI PUSH1 0x40 MLOAD PUSH4 0x5274AFE7 PUSH1 0xE0 SHL DUP2 MSTORE PUSH1 0x1 PUSH1 0x1 PUSH1 0xA0 SHL SUB DUP6 AND PUSH1 0x4 DUP3 ADD MSTORE PUSH1 0x24 ADD PUSH2 0x35B JUMP JUMPDEST POP POP POP POP JUMP JUMPDEST PUSH1 0x40 MLOAD PUSH4 0xA9059CBB PUSH1 0xE0 SHL PUSH1 0x0 DUP2 DUP2 MSTORE PUSH1 0x1 PUSH1 0x1 PUSH1 0xA0 SHL SUB DUP7 AND PUSH1 0x4 MSTORE PUSH1 0x24 DUP6 SWAP1 MSTORE SWAP2 PUSH1 0x20 DUP4 PUSH1 0x44 DUP2 DUP1 DUP12 GAS CALL SWAP3 POP PUSH1 0x1 PUSH1 0x0 MLOAD EQ DUP4 AND PUSH2 0x9BA JUMPI DUP4 DUP4 ISZERO AND ISZERO PUSH2 0x9AD JUMPI RETURNDATASIZE PUSH1 0x0 DUP3 RETURNDATACOPY RETURNDATASIZE DUP2 REVERT JUMPDEST PUSH1 0x0 DUP8 EXTCODESIZE GT RETURNDATASIZE ISZERO AND DUP4 AND SWAP3 POP JUMPDEST PUSH1 0x40 MSTORE POP SWAP5 SWAP4 POP POP POP POP JUMP JUMPDEST PUSH1 0x40 MLOAD PUSH4 0x23B872DD PUSH1 0xE0 SHL PUSH1 0x0 DUP2 DUP2 MSTORE PUSH1 0x1 PUSH1 0x1 PUSH1 0xA0 SHL SUB DUP8 DUP2 AND PUSH1 0x4 MSTORE DUP7 AND PUSH1 0x24 MSTORE PUSH1 0x44 DUP6 SWAP1 MSTORE SWAP2 PUSH1 0x20 DUP4 PUSH1 0x64 DUP2 DUP1 DUP13 GAS CALL SWAP3 POP PUSH1 0x1 PUSH1 0x0 MLOAD EQ DUP4 AND PUSH2 0xA26 JUMPI DUP4 DUP4 ISZERO AND ISZERO PUSH2 0xA19 JUMPI RETURNDATASIZE PUSH1 0x0 DUP3 RETURNDATACOPY RETURNDATASIZE DUP2 REVERT JUMPDEST PUSH1 0x0 DUP9 EXTCODESIZE GT RETURNDATASIZE ISZERO AND DUP4 AND SWAP3 POP JUMPDEST PUSH1 0x40 MSTORE POP PUSH1 0x0 PUSH1 0x60 MSTORE SWAP6 SWAP5 POP POP POP POP POP JUMP JUMPDEST DUP1 CALLDATALOAD PUSH1 0x1 PUSH1 0x1 PUSH1 0xA0 SHL SUB DUP2 AND DUP2 EQ PUSH2 0xA4F JUMPI PUSH1 0x0 DUP1 REVERT JUMPDEST SWAP2 SWAP1 POP JUMP JUMPDEST PUSH1 0x0 PUSH1 0x20 DUP3 DUP5 SUB SLT ISZERO PUSH2 0xA66 JUMPI PUSH1 0x0 DUP1 REVERT JUMPDEST PUSH2 0xA6F DUP3 PUSH2 0xA38 JUMP JUMPDEST SWAP4 SWAP3 POP POP POP JUMP JUMPDEST PUSH1 0x0 PUSH1 0x20 DUP3 DUP5 SUB SLT ISZERO PUSH2 0xA88 JUMPI PUSH1 0x0 DUP1 REVERT JUMPDEST POP CALLDATALOAD SWAP2 SWAP1 POP JUMP JUMPDEST PUSH1 0x0 DUP1 PUSH1 0x0 DUP1 PUSH1 0x60 DUP6 DUP8 SUB SLT ISZERO PUSH2 0xAA5 JUMPI PUSH1 0x0 DUP1 REVERT JUMPDEST PUSH2 0xAAE DUP6 PUSH2 0xA38 JUMP JUMPDEST SWAP4 POP PUSH1 0x20 DUP6 ADD CALLDATALOAD SWAP3 POP PUSH1 0x40 DUP6 ADD CALLDATALOAD PUSH8 0xFFFFFFFFFFFFFFFF DUP1 DUP3 GT ISZERO PUSH2 0xAD2 JUMPI PUSH1 0x0 DUP1 REVERT JUMPDEST DUP2 DUP8 ADD SWAP2 POP DUP8 PUSH1 0x1F DUP4 ADD SLT PUSH2 0xAE6 JUMPI PUSH1 0x0 DUP1 REVERT JUMPDEST DUP2 CALLDATALOAD DUP2 DUP2 GT ISZERO PUSH2 0xAF5 JUMPI PUSH1 0x0 DUP1 REVERT JUMPDEST DUP9 PUSH1 0x20 DUP3 DUP6 ADD ADD GT ISZERO PUSH2 0xB07 JUMPI PUSH1 0x0 DUP1 REVERT JUMPDEST SWAP6 SWAP9 SWAP5 SWAP8 POP POP PUSH1 0x20 ADD SWAP5 POP POP POP JUMP JUMPDEST PUSH4 0x4E487B71 PUSH1 0xE0 SHL PUSH1 0x0 MSTORE PUSH1 0x11 PUSH1 0x4 MSTORE PUSH1 0x24 PUSH1 0x0 REVERT JUMPDEST DUP2 DUP2 SUB DUP2 DUP2 GT ISZERO PUSH2 0xB3F JUMPI PUSH2 0xB3F PUSH2 0xB16 JUMP JUMPDEST SWAP3 SWAP2 POP POP JUMP JUMPDEST DUP4 DUP2 MSTORE PUSH1 0x40 PUSH1 0x20 DUP3 ADD MSTORE DUP2 PUSH1 0x40 DUP3 ADD MSTORE DUP2 DUP4 PUSH1 0x60 DUP4 ADD CALLDATACOPY PUSH1 0x0 DUP2 DUP4 ADD PUSH1 0x60 SWAP1 DUP2 ADD SWAP2 SWAP1 SWAP2 MSTORE PUSH1 0x1F SWAP1 SWAP3 ADD PUSH1 0x1F NOT AND ADD ADD SWAP3 SWAP2 POP POP JUMP JUMPDEST DUP1 DUP3 ADD DUP1 DUP3 GT ISZERO PUSH2 0xB3F JUMPI PUSH2 0xB3F PUSH2 0xB16 JUMP INVALID LOG2 PUSH5 0x6970667358 0x22 SLT KECCAK256 0xA5 PUSH0 0xD0 RETURNDATASIZE 0xCB SWAP12 CALLDATACOPY GT OR BLOCKHASH 0xC0 0xAD LOG0 0x4E 0x23 0x29 0xCA 0xB7 SWAP9 0xB8 0xAB PUSH14 0xF591E64EE0E720C59B3E64736F6C PUSH4 0x43000814 STOP CALLER "},"methodIdentifiers":{"getStake(address)":"7a766460","isStaker(address)":"6f1e8533","lockDuration()":"04554443","minimumStake()":"ec5ffac2","owner()":"8da5cb5b","renounceOwnership()":"715018a6","setLockDuration(uint256)":"4eb665af","setMinimumStake(uint256)":"233e9903","slash(address,uint256,string)":"678b3ee2","stake(uint256)":"a694fc3a","stakes(address)":"16934fc4","stakingToken()":"72f702f3","totalStaked()":"817b1cd2","transferOwnership(address)":"f2fde38b","unstake()":"2def6620"}}}}}