{
  "_format": "hh-sol-artifact-1",
  "contractName": "DJZSAgentRegistry",
  "sourceName": "contracts/DJZSAgentRegistry.sol",
  "abi": [
    {
      "inputs": [],
      "stateMutability": "nonpayable",
      "type": "constructor"
    },
    {
      "inputs": [
        {
          "internalType": "address",
          "name": "owner",
          "type": "address"
        }
      ],
      "name": "OwnableInvalidOwner",
      "type": "error"
    },
    {
      "inputs": [
        {
          "internalType": "address",
          "name": "account",
          "type": "address"
        }
      ],
      "name": "OwnableUnauthorizedAccount",
      "type": "error"
    },
    {
      "anonymous": false,
      "inputs": [
        {
          "indexed": true,
          "internalType": "address",
          "name": "agent",
          "type": "address"
        }
      ],
      "name": "AgentDeactivated",
      "type": "event"
    },
    {
      "anonymous": false,
      "inputs": [
        {
          "indexed": true,
          "internalType": "address",
          "name": "agent",
          "type": "address"
        },
        {
          "indexed": false,
          "internalType": "string",
          "name": "metadataUri",
          "type": "string"
        }
      ],
      "name": "AgentMetadataUpdated",
      "type": "event"
    },
    {
      "anonymous": false,
      "inputs": [
        {
          "indexed": true,
          "internalType": "address",
          "name": "agent",
          "type": "address"
        }
      ],
      "name": "AgentReactivated",
      "type": "event"
    },
    {
      "anonymous": false,
      "inputs": [
        {
          "indexed": true,
          "internalType": "address",
          "name": "agent",
          "type": "address"
        },
        {
          "indexed": false,
          "internalType": "string",
          "name": "name",
          "type": "string"
        },
        {
          "indexed": true,
          "internalType": "address",
          "name": "agentOwner",
          "type": "address"
        }
      ],
      "name": "AgentRegistered",
      "type": "event"
    },
    {
      "anonymous": false,
      "inputs": [
        {
          "indexed": true,
          "internalType": "address",
          "name": "previousOwner",
          "type": "address"
        },
        {
          "indexed": true,
          "internalType": "address",
          "name": "newOwner",
          "type": "address"
        }
      ],
      "name": "OwnershipTransferred",
      "type": "event"
    },
    {
      "inputs": [
        {
          "internalType": "uint256",
          "name": "",
          "type": "uint256"
        }
      ],
      "name": "agentList",
      "outputs": [
        {
          "internalType": "address",
          "name": "",
          "type": "address"
        }
      ],
      "stateMutability": "view",
      "type": "function"
    },
    {
      "inputs": [
        {
          "internalType": "address",
          "name": "",
          "type": "address"
        }
      ],
      "name": "agents",
      "outputs": [
        {
          "internalType": "string",
          "name": "name",
          "type": "string"
        },
        {
          "internalType": "string",
          "name": "metadataUri",
          "type": "string"
        },
        {
          "internalType": "address",
          "name": "owner",
          "type": "address"
        },
        {
          "internalType": "bool",
          "name": "active",
          "type": "bool"
        },
        {
          "internalType": "uint256",
          "name": "registeredAt",
          "type": "uint256"
        }
      ],
      "stateMutability": "view",
      "type": "function"
    },
    {
      "inputs": [
        {
          "internalType": "address",
          "name": "agent",
          "type": "address"
        }
      ],
      "name": "deactivateAgent",
      "outputs": [],
      "stateMutability": "nonpayable",
      "type": "function"
    },
    {
      "inputs": [
        {
          "internalType": "address",
          "name": "agent",
          "type": "address"
        }
      ],
      "name": "getAgent",
      "outputs": [
        {
          "internalType": "string",
          "name": "name",
          "type": "string"
        },
        {
          "internalType": "string",
          "name": "metadataUri",
          "type": "string"
        },
        {
          "internalType": "address",
          "name": "agentOwner",
          "type": "address"
        },
        {
          "internalType": "bool",
          "name": "active",
          "type": "bool"
        },
        {
          "internalType": "uint256",
          "name": "registeredAt",
          "type": "uint256"
        }
      ],
      "stateMutability": "view",
      "type": "function"
    },
    {
      "inputs": [
        {
          "internalType": "uint256",
          "name": "index",
          "type": "uint256"
        }
      ],
      "name": "getAgentAtIndex",
      "outputs": [
        {
          "internalType": "address",
          "name": "",
          "type": "address"
        }
      ],
      "stateMutability": "view",
      "type": "function"
    },
    {
      "inputs": [],
      "name": "getAgentCount",
      "outputs": [
        {
          "internalType": "uint256",
          "name": "",
          "type": "uint256"
        }
      ],
      "stateMutability": "view",
      "type": "function"
    },
    {
      "inputs": [
        {
          "internalType": "address",
          "name": "",
          "type": "address"
        }
      ],
      "name": "isRegistered",
      "outputs": [
        {
          "internalType": "bool",
          "name": "",
          "type": "bool"
        }
      ],
      "stateMutability": "view",
      "type": "function"
    },
    {
      "inputs": [],
      "name": "owner",
      "outputs": [
        {
          "internalType": "address",
          "name": "",
          "type": "address"
        }
      ],
      "stateMutability": "view",
      "type": "function"
    },
    {
      "inputs": [
        {
          "internalType": "address",
          "name": "agent",
          "type": "address"
        }
      ],
      "name": "reactivateAgent",
      "outputs": [],
      "stateMutability": "nonpayable",
      "type": "function"
    },
    {
      "inputs": [
        {
          "internalType": "address",
          "name": "agent",
          "type": "address"
        },
        {
          "internalType": "string",
          "name": "name",
          "type": "string"
        },
        {
          "internalType": "string",
          "name": "metadataUri",
          "type": "string"
        }
      ],
      "name": "registerAgent",
      "outputs": [],
      "stateMutability": "nonpayable",
      "type": "function"
    },
    {
      "inputs": [],
      "name": "renounceOwnership",
      "outputs": [],
      "stateMutability": "nonpayable",
      "type": "function"
    },
    {
      "inputs": [
        {
          "internalType": "address",
          "name": "newOwner",
          "type": "address"
        }
      ],
      "name": "transferOwnership",
      "outputs": [],
      "stateMutability": "nonpayable",
      "type": "function"
    },
    {
      "inputs": [
        {
          "internalType": "address",
          "name": "agent",
          "type": "address"
        },
        {
          "internalType": "string",
          "name": "metadataUri",
          "type": "string"
        }
      ],
      "name": "updateMetadata",
      "outputs": [],
      "stateMutability": "nonpayable",
      "type": "function"
    }
  ],
  "bytecode": "0x608060405234801561001057600080fd5b50338061003757604051631e4fbdf760e01b81526000600482015260240160405180910390fd5b61004081610046565b50610096565b600080546001600160a01b038381166001600160a01b0319831681178455604051919092169283917f8be0079c531659141344cd1fd0a4f28419497f9722a3daafe3b4186f6b6457e09190a35050565b6110e1806100a56000396000f3fe608060405234801561001057600080fd5b50600436106100cf5760003560e01c806391cab63e1161008c578063da38d49811610066578063da38d498146101af578063f2fde38b146101c2578063fb3551ff146101d5578063fd66091e146101f957600080fd5b806391cab63e14610158578063b0a0a92714610169578063c3c5a5471461017c57600080fd5b80632f80c54f146100d457806364c8179414610104578063715018a6146101195780637216fe48146101215780637bcac9a5146101345780638da5cb5b14610147575b600080fd5b6100e76100e2366004610bc8565b61020c565b6040516001600160a01b0390911681526020015b60405180910390f35b610117610112366004610bfd565b610236565b005b61011761031d565b61011761012f366004610c68565b610331565b6100e7610142366004610bc8565b6105ea565b6000546001600160a01b03166100e7565b6003546040519081526020016100fb565b610117610177366004610bfd565b61067b565b61019f61018a366004610bfd565b60026020526000908152604090205460ff1681565b60405190151581526020016100fb565b6101176101bd366004610ce9565b610753565b6101176101d0366004610bfd565b61084c565b6101e86101e3366004610bfd565b61088a565b6040516100fb959493929190610d82565b6101e8610207366004610bfd565b6109fd565b6003818154811061021c57600080fd5b6000918252602090912001546001600160a01b0316905081565b6001600160a01b03811660009081526002602052604090205460ff166102775760405162461bcd60e51b815260040161026e90610dce565b60405180910390fd5b6001600160a01b03818116600090815260016020526040902060020154163314806102ac57506000546001600160a01b031633145b6102c85760405162461bcd60e51b815260040161026e90610e0f565b6001600160a01b038116600081815260016020526040808220600201805460ff60a01b1916600160a01b179055517f4272097f7cd14b10d38a34d4aecc7896a7dcc5c35ffa96932ff1b1617e7bebe79190a250565b610325610b4b565b61032f6000610b78565b565b6001600160a01b0385166103875760405162461bcd60e51b815260206004820152601f60248201527f444a5a534167656e7452656769737472793a207a65726f206164647265737300604482015260640161026e565b6001600160a01b03851660009081526002602052604090205460ff16156103fe5760405162461bcd60e51b815260206004820152602560248201527f444a5a534167656e7452656769737472793a20616c72656164792072656769736044820152641d195c995960da1b606482015260840161026e565b336001600160a01b038616148061041f57506000546001600160a01b031633145b61043b5760405162461bcd60e51b815260040161026e90610e0f565b6040518060a0016040528085858080601f016020809104026020016040519081016040528093929190818152602001838380828437600092019190915250505090825250604080516020601f860181900481028201810190925284815291810191908590859081908401838280828437600092018290525093855250503360208085019190915260016040808601829052426060909601959095526001600160a01b038b16845290525020815181906104f49082610ee5565b50602082015160018201906105099082610ee5565b506040828101516002808401805460608701511515600160a01b026001600160a81b03199091166001600160a01b039485161717905560809094015160039384015588166000818152602094909452818420805460ff1916600190811790915583549081018455929093527fc2575a0e9e593c00f959f8c92f12db2869c3395a3b0502d05e2516446f71f85b90910180546001600160a01b03191683179055513391907f6cf3badcf1a10c54709f13ad2475d8b3a44ebcb1b93b38e7257f985053235040906105db9088908890610fa5565b60405180910390a35050505050565b600354600090821061064d5760405162461bcd60e51b815260206004820152602660248201527f444a5a534167656e7452656769737472793a20696e646578206f7574206f6620604482015265626f756e647360d01b606482015260840161026e565b6003828154811061066057610660610fd4565b6000918252602090912001546001600160a01b031692915050565b6001600160a01b03811660009081526002602052604090205460ff166106b35760405162461bcd60e51b815260040161026e90610dce565b6001600160a01b03818116600090815260016020526040902060020154163314806106e857506000546001600160a01b031633145b6107045760405162461bcd60e51b815260040161026e90610e0f565b6001600160a01b038116600081815260016020526040808220600201805460ff60a01b19169055517fa58c733780f5c1527d6106ff1e731cbf2e9ffc0eb11ad399ca33ea55f057ddf49190a250565b6001600160a01b03831660009081526002602052604090205460ff1661078b5760405162461bcd60e51b815260040161026e90610dce565b6001600160a01b03838116600090815260016020526040902060020154163314806107c057506000546001600160a01b031633145b6107dc5760405162461bcd60e51b815260040161026e90610e0f565b6001600160a01b038316600090815260016020819052604090912001610803828483610fea565b50826001600160a01b03167f12a9d4aa9479d9e2272759e07df3e6c2a5811bacb916aa3f202028957f205bc1838360405161083f929190610fa5565b60405180910390a2505050565b610854610b4b565b6001600160a01b03811661087e57604051631e4fbdf760e01b81526000600482015260240161026e565b61088781610b78565b50565b6001600160a01b0381811660009081526001602081905260408220600281015460038201548254606096879695869586959094859492850193821692600160a01b90920460ff169185906108dd90610e5c565b80601f016020809104026020016040519081016040528092919081815260200182805461090990610e5c565b80156109565780601f1061092b57610100808354040283529160200191610956565b820191906000526020600020905b81548152906001019060200180831161093957829003601f168201915b5050505050945083805461096990610e5c565b80601f016020809104026020016040519081016040528092919081815260200182805461099590610e5c565b80156109e25780601f106109b7576101008083540402835291602001916109e2565b820191906000526020600020905b8154815290600101906020018083116109c557829003601f168201915b50505050509350955095509550955095505091939590929450565b600160205260009081526040902080548190610a1890610e5c565b80601f0160208091040260200160405190810160405280929190818152602001828054610a4490610e5c565b8015610a915780601f10610a6657610100808354040283529160200191610a91565b820191906000526020600020905b815481529060010190602001808311610a7457829003601f168201915b505050505090806001018054610aa690610e5c565b80601f0160208091040260200160405190810160405280929190818152602001828054610ad290610e5c565b8015610b1f5780601f10610af457610100808354040283529160200191610b1f565b820191906000526020600020905b815481529060010190602001808311610b0257829003601f168201915b50505050600283015460039093015491926001600160a01b03811692600160a01b90910460ff16915085565b6000546001600160a01b0316331461032f5760405163118cdaa760e01b815233600482015260240161026e565b600080546001600160a01b038381166001600160a01b0319831681178455604051919092169283917f8be0079c531659141344cd1fd0a4f28419497f9722a3daafe3b4186f6b6457e09190a35050565b600060208284031215610bda57600080fd5b5035919050565b80356001600160a01b0381168114610bf857600080fd5b919050565b600060208284031215610c0f57600080fd5b610c1882610be1565b9392505050565b60008083601f840112610c3157600080fd5b50813567ffffffffffffffff811115610c4957600080fd5b602083019150836020828501011115610c6157600080fd5b9250929050565b600080600080600060608688031215610c8057600080fd5b610c8986610be1565b9450602086013567ffffffffffffffff80821115610ca657600080fd5b610cb289838a01610c1f565b90965094506040880135915080821115610ccb57600080fd5b50610cd888828901610c1f565b969995985093965092949392505050565b600080600060408486031215610cfe57600080fd5b610d0784610be1565b9250602084013567ffffffffffffffff811115610d2357600080fd5b610d2f86828701610c1f565b9497909650939450505050565b6000815180845260005b81811015610d6257602081850181015186830182015201610d46565b506000602082860101526020601f19601f83011685010191505092915050565b60a081526000610d9560a0830188610d3c565b8281036020840152610da78188610d3c565b6001600160a01b039690961660408401525050911515606083015260809091015292915050565b60208082526021908201527f444a5a534167656e7452656769737472793a206e6f74207265676973746572656040820152601960fa1b606082015260800190565b6020808252601f908201527f444a5a534167656e7452656769737472793a20756e617574686f72697a656400604082015260600190565b634e487b7160e01b600052604160045260246000fd5b600181811c90821680610e7057607f821691505b602082108103610e9057634e487b7160e01b600052602260045260246000fd5b50919050565b601f821115610ee057600081815260208120601f850160051c81016020861015610ebd5750805b601f850160051c820191505b81811015610edc57828155600101610ec9565b5050505b505050565b815167ffffffffffffffff811115610eff57610eff610e46565b610f1381610f0d8454610e5c565b84610e96565b602080601f831160018114610f485760008415610f305750858301515b600019600386901b1c1916600185901b178555610edc565b600085815260208120601f198616915b82811015610f7757888601518255948401946001909101908401610f58565b5085821015610f955787850151600019600388901b60f8161c191681555b5050505050600190811b01905550565b60208152816020820152818360408301376000818301604090810191909152601f909201601f19160101919050565b634e487b7160e01b600052603260045260246000fd5b67ffffffffffffffff83111561100257611002610e46565b611016836110108354610e5c565b83610e96565b6000601f84116001811461104a57600085156110325750838201355b600019600387901b1c1916600186901b1783556110a4565b600083815260209020601f19861690835b8281101561107b578685013582556020948501946001909201910161105b565b50868210156110985760001960f88860031b161c19848701351681555b505060018560011b0183555b505050505056fea2646970667358221220aacc4b37f152fc651bd90df87be695ea1a8c3364bffc5898a4ab7373c092bb5964736f6c63430008140033",
  "linkReferences": {},
  "deployedLinkReferences": {}
}