{
  "_format": "hh-sol-artifact-1",
  "contractName": "DJZSEscrowLock",
  "sourceName": "contracts/DJZSEscrowLock.sol",
  "abi": [
    {
      "inputs": [
        {
          "internalType": "address",
          "name": "_paymentToken",
          "type": "address"
        }
      ],
      "stateMutability": "nonpayable",
      "type": "constructor"
    },
    {
      "inputs": [
        {
          "internalType": "address",
          "name": "owner",
          "type": "address"
        }
      ],
      "name": "OwnableInvalidOwner",
      "type": "error"
    },
    {
      "inputs": [
        {
          "internalType": "address",
          "name": "account",
          "type": "address"
        }
      ],
      "name": "OwnableUnauthorizedAccount",
      "type": "error"
    },
    {
      "inputs": [
        {
          "internalType": "address",
          "name": "token",
          "type": "address"
        }
      ],
      "name": "SafeERC20FailedOperation",
      "type": "error"
    },
    {
      "anonymous": false,
      "inputs": [
        {
          "indexed": true,
          "internalType": "uint256",
          "name": "escrowId",
          "type": "uint256"
        },
        {
          "indexed": false,
          "internalType": "address",
          "name": "creator",
          "type": "address"
        },
        {
          "indexed": false,
          "internalType": "address",
          "name": "recipient",
          "type": "address"
        },
        {
          "indexed": false,
          "internalType": "bytes32",
          "name": "executionTraceHash",
          "type": "bytes32"
        },
        {
          "indexed": false,
          "internalType": "uint256",
          "name": "amount",
          "type": "uint256"
        }
      ],
      "name": "AuditPending",
      "type": "event"
    },
    {
      "anonymous": false,
      "inputs": [
        {
          "indexed": true,
          "internalType": "uint256",
          "name": "escrowId",
          "type": "uint256"
        },
        {
          "indexed": false,
          "internalType": "address",
          "name": "creator",
          "type": "address"
        },
        {
          "indexed": false,
          "internalType": "address",
          "name": "recipient",
          "type": "address"
        },
        {
          "indexed": false,
          "internalType": "uint256",
          "name": "amount",
          "type": "uint256"
        },
        {
          "indexed": false,
          "internalType": "bytes32",
          "name": "executionTraceHash",
          "type": "bytes32"
        }
      ],
      "name": "EscrowCreated",
      "type": "event"
    },
    {
      "anonymous": false,
      "inputs": [
        {
          "indexed": true,
          "internalType": "uint256",
          "name": "escrowId",
          "type": "uint256"
        }
      ],
      "name": "EscrowRefunded",
      "type": "event"
    },
    {
      "anonymous": false,
      "inputs": [
        {
          "indexed": true,
          "internalType": "uint256",
          "name": "escrowId",
          "type": "uint256"
        },
        {
          "indexed": false,
          "internalType": "bool",
          "name": "passed",
          "type": "bool"
        },
        {
          "indexed": false,
          "internalType": "string",
          "name": "irisTxId",
          "type": "string"
        }
      ],
      "name": "EscrowSettled",
      "type": "event"
    },
    {
      "anonymous": false,
      "inputs": [
        {
          "indexed": true,
          "internalType": "address",
          "name": "previousOwner",
          "type": "address"
        },
        {
          "indexed": true,
          "internalType": "address",
          "name": "newOwner",
          "type": "address"
        }
      ],
      "name": "OwnershipTransferred",
      "type": "event"
    },
    {
      "inputs": [
        {
          "internalType": "address",
          "name": "recipient",
          "type": "address"
        },
        {
          "internalType": "uint256",
          "name": "amount",
          "type": "uint256"
        },
        {
          "internalType": "bytes32",
          "name": "executionTraceHash",
          "type": "bytes32"
        }
      ],
      "name": "createEscrow",
      "outputs": [
        {
          "internalType": "uint256",
          "name": "escrowId",
          "type": "uint256"
        }
      ],
      "stateMutability": "nonpayable",
      "type": "function"
    },
    {
      "inputs": [
        {
          "internalType": "uint256",
          "name": "",
          "type": "uint256"
        }
      ],
      "name": "escrows",
      "outputs": [
        {
          "internalType": "address",
          "name": "creator",
          "type": "address"
        },
        {
          "internalType": "address",
          "name": "recipient",
          "type": "address"
        },
        {
          "internalType": "uint256",
          "name": "amount",
          "type": "uint256"
        },
        {
          "internalType": "bytes32",
          "name": "executionTraceHash",
          "type": "bytes32"
        },
        {
          "internalType": "bool",
          "name": "settled",
          "type": "bool"
        },
        {
          "internalType": "enum DJZSEscrowLock.EscrowStatus",
          "name": "status",
          "type": "uint8"
        },
        {
          "internalType": "string",
          "name": "irisTxId",
          "type": "string"
        }
      ],
      "stateMutability": "view",
      "type": "function"
    },
    {
      "inputs": [
        {
          "internalType": "uint256",
          "name": "escrowId",
          "type": "uint256"
        }
      ],
      "name": "getEscrow",
      "outputs": [
        {
          "internalType": "address",
          "name": "creator",
          "type": "address"
        },
        {
          "internalType": "address",
          "name": "recipient",
          "type": "address"
        },
        {
          "internalType": "uint256",
          "name": "amount",
          "type": "uint256"
        },
        {
          "internalType": "bytes32",
          "name": "executionTraceHash",
          "type": "bytes32"
        },
        {
          "internalType": "bool",
          "name": "settled",
          "type": "bool"
        }
      ],
      "stateMutability": "view",
      "type": "function"
    },
    {
      "inputs": [],
      "name": "nextEscrowId",
      "outputs": [
        {
          "internalType": "uint256",
          "name": "",
          "type": "uint256"
        }
      ],
      "stateMutability": "view",
      "type": "function"
    },
    {
      "inputs": [],
      "name": "owner",
      "outputs": [
        {
          "internalType": "address",
          "name": "",
          "type": "address"
        }
      ],
      "stateMutability": "view",
      "type": "function"
    },
    {
      "inputs": [],
      "name": "paymentToken",
      "outputs": [
        {
          "internalType": "contract IERC20",
          "name": "",
          "type": "address"
        }
      ],
      "stateMutability": "view",
      "type": "function"
    },
    {
      "inputs": [
        {
          "internalType": "uint256",
          "name": "escrowId",
          "type": "uint256"
        }
      ],
      "name": "refundEscrow",
      "outputs": [],
      "stateMutability": "nonpayable",
      "type": "function"
    },
    {
      "inputs": [],
      "name": "renounceOwnership",
      "outputs": [],
      "stateMutability": "nonpayable",
      "type": "function"
    },
    {
      "inputs": [
        {
          "internalType": "address",
          "name": "_agent",
          "type": "address"
        }
      ],
      "name": "setSettlementAgent",
      "outputs": [],
      "stateMutability": "nonpayable",
      "type": "function"
    },
    {
      "inputs": [
        {
          "internalType": "uint256",
          "name": "escrowId",
          "type": "uint256"
        },
        {
          "internalType": "bool",
          "name": "passed",
          "type": "bool"
        },
        {
          "internalType": "string",
          "name": "irisTxId",
          "type": "string"
        }
      ],
      "name": "settleEscrow",
      "outputs": [],
      "stateMutability": "nonpayable",
      "type": "function"
    },
    {
      "inputs": [],
      "name": "settlementAgent",
      "outputs": [
        {
          "internalType": "address",
          "name": "",
          "type": "address"
        }
      ],
      "stateMutability": "view",
      "type": "function"
    },
    {
      "inputs": [
        {
          "internalType": "address",
          "name": "newOwner",
          "type": "address"
        }
      ],
      "name": "transferOwnership",
      "outputs": [],
      "stateMutability": "nonpayable",
      "type": "function"
    }
  ],
  "bytecode": "0x60a060405234801561001057600080fd5b5060405161112a38038061112a83398101604081905261002f916100d2565b338061005557604051631e4fbdf760e01b81526000600482015260240160405180910390fd5b61005e81610082565b506001600160a01b0316608052600180546001600160a01b03191633179055610102565b600080546001600160a01b038381166001600160a01b0319831681178455604051919092169283917f8be0079c531659141344cd1fd0a4f28419497f9722a3daafe3b4186f6b6457e09190a35050565b6000602082840312156100e457600080fd5b81516001600160a01b03811681146100fb57600080fd5b9392505050565b608051610ff161013960003960008181610139015281816103e50152818161067d0152818161086701526108ab0152610ff16000f3fe608060405234801561001057600080fd5b50600436106100b45760003560e01c80637d19e596116100715780637d19e5961461017857806387b55227146101fd57806389cb29dd146102105780638da5cb5b14610219578063a145458f1461022a578063f2fde38b1461023d57600080fd5b8063012f52ee146100b9578063053576ad146100e857806321c8956c146101135780633013ce2914610134578063356f9dfd1461015b578063715018a614610170575b600080fd5b6100cc6100c7366004610b21565b610250565b6040516100df9796959493929190610b50565b60405180910390f35b6001546100fb906001600160a01b031681565b6040516001600160a01b0390911681526020016100df565b610126610121366004610c15565b61032b565b6040519081526020016100df565b6100fb7f000000000000000000000000000000000000000000000000000000000000000081565b61016e610169366004610b21565b6105c5565b005b61016e6106d6565b6101c8610186366004610b21565b6000908152600360208190526040909120805460018201546002830154938301546004909301546001600160a01b03928316959290911693929160ff90911690565b604080516001600160a01b0396871681529590941660208601529284019190915260608301521515608082015260a0016100df565b61016e61020b366004610c48565b6106ea565b61012660025481565b6000546001600160a01b03166100fb565b61016e610238366004610c6a565b610714565b61016e61024b366004610c48565b610918565b60036020819052600091825260409091208054600182015460028301549383015460048401546005850180546001600160a01b03958616979590941695929360ff80841694610100909404169291906102a890610cf8565b80601f01602080910402602001604051908101604052809291908181526020018280546102d490610cf8565b80156103215780601f106102f657610100808354040283529160200191610321565b820191906000526020600020905b81548152906001019060200180831161030457829003601f168201915b5050505050905087565b60006001600160a01b0384166103885760405162461bcd60e51b815260206004820152601e60248201527f444a5a53457363726f774c6f636b3a207a65726f20726563697069656e74000060448201526064015b60405180910390fd5b600083116103d85760405162461bcd60e51b815260206004820152601b60248201527f444a5a53457363726f774c6f636b3a207a65726f20616d6f756e740000000000604482015260640161037f565b61040d6001600160a01b037f000000000000000000000000000000000000000000000000000000000000000016333086610956565b6002805490600061041d83610d32565b909155506040805160e0810182523381526001600160a01b0387811660208084019182528385018981526060850189815260006080870181815260a0880182815289518087018b5283815260c08a01528a835260039586905298909120875181549088166001600160a01b03199182161782559551600182018054919098169616959095179095559051600280850191909155905191830191909155915160048201805491151560ff1983168117825595519697509395919491939261ff001990921661ffff1990911617906101009084908111156104fe576104fe610b3a565b021790555060c082015160058201906105179082610dbd565b5050604080513381526001600160a01b0387166020820152908101859052606081018490528291507fd32a8e6ee4eaa7ae887d4659a3212bb80cc3691c898c8eae123745080a3dfcd19060800160405180910390a2604080513381526001600160a01b03861660208201529081018390526060810184905281907fb566e38404b730bf01cf41aaa8f5b76b5260bbb565f85ef24f1288ddb009d6189060800160405180910390a29392505050565b6105cd610992565b600081815260036020526040902080546001600160a01b03166106025760405162461bcd60e51b815260040161037f90610e7d565b600481015460ff16156106575760405162461bcd60e51b815260206004820152601f60248201527f444a5a53457363726f774c6f636b3a20616c726561647920736574746c656400604482015260640161037f565b60048101805461ffff1916610201179055805460028201546106a7916001600160a01b037f00000000000000000000000000000000000000000000000000000000000000008116929116906109bf565b60405182907f2babb5cd458b6d41108d6d793a75e29ca524e7caa20e2da6c994462010920a7290600090a25050565b6106de610992565b6106e860006109f9565b565b6106f2610992565b600180546001600160a01b0319166001600160a01b0392909216919091179055565b6001546001600160a01b031633148061073757506000546001600160a01b031633145b61079e5760405162461bcd60e51b815260206004820152603260248201527f444a5a53457363726f774c6f636b3a2063616c6c6572206973206e6f7420746860448201527119481cd95d1d1b195b595b9d081859d95b9d60721b606482015260840161037f565b600084815260036020526040902080546001600160a01b03166107d35760405162461bcd60e51b815260040161037f90610e7d565b600481015460ff16156108285760405162461bcd60e51b815260206004820152601f60248201527f444a5a53457363726f774c6f636b3a20616c726561647920736574746c656400604482015260640161037f565b60048101805461ffff191661010117905560058101610848838583610ec2565b5083156108965760018101546002820154610891916001600160a01b037f00000000000000000000000000000000000000000000000000000000000000008116929116906109bf565b6108d5565b805460028201546108d5916001600160a01b037f00000000000000000000000000000000000000000000000000000000000000008116929116906109bf565b847f5cdd661246c0049a4f25da99652dec7a06e94c3b9cadde81dc49cb16969f69d885858560405161090993929190610f83565b60405180910390a25050505050565b610920610992565b6001600160a01b03811661094a57604051631e4fbdf760e01b81526000600482015260240161037f565b610953816109f9565b50565b610964848484846001610a49565b61098c57604051635274afe760e01b81526001600160a01b038516600482015260240161037f565b50505050565b6000546001600160a01b031633146106e85760405163118cdaa760e01b815233600482015260240161037f565b6109cc8383836001610abb565b6109f457604051635274afe760e01b81526001600160a01b038416600482015260240161037f565b505050565b600080546001600160a01b038381166001600160a01b0319831681178455604051919092169283917f8be0079c531659141344cd1fd0a4f28419497f9722a3daafe3b4186f6b6457e09190a35050565b6040516323b872dd60e01b60008181526001600160a01b038781166004528616602452604485905291602083606481808c5af192506001600051148316610aa9578383151615610a9c573d6000823e3d81fd5b6000883b113d1516831692505b60405250600060605295945050505050565b60405163a9059cbb60e01b60008181526001600160a01b038616600452602485905291602083604481808b5af192506001600051148316610b15578383151615610b08573d6000823e3d81fd5b6000873b113d1516831692505b60405250949350505050565b600060208284031215610b3357600080fd5b5035919050565b634e487b7160e01b600052602160045260246000fd5b600060018060a01b03808a1683526020818a1681850152886040850152876060850152861515608085015260038610610b9957634e487b7160e01b600052602160045260246000fd5b8560a085015260e060c0850152845191508160e085015260005b82811015610bd05785810182015185820161010001528101610bb3565b5050610100600081838601015280601f19601f8401168501019250505098975050505050505050565b80356001600160a01b0381168114610c1057600080fd5b919050565b600080600060608486031215610c2a57600080fd5b610c3384610bf9565b95602085013595506040909401359392505050565b600060208284031215610c5a57600080fd5b610c6382610bf9565b9392505050565b60008060008060608587031215610c8057600080fd5b8435935060208501358015158114610c9757600080fd5b9250604085013567ffffffffffffffff80821115610cb457600080fd5b818701915087601f830112610cc857600080fd5b813581811115610cd757600080fd5b886020828501011115610ce957600080fd5b95989497505060200194505050565b600181811c90821680610d0c57607f821691505b602082108103610d2c57634e487b7160e01b600052602260045260246000fd5b50919050565b600060018201610d5257634e487b7160e01b600052601160045260246000fd5b5060010190565b634e487b7160e01b600052604160045260246000fd5b601f8211156109f457600081815260208120601f850160051c81016020861015610d965750805b601f850160051c820191505b81811015610db557828155600101610da2565b505050505050565b815167ffffffffffffffff811115610dd757610dd7610d59565b610deb81610de58454610cf8565b84610d6f565b602080601f831160018114610e205760008415610e085750858301515b600019600386901b1c1916600185901b178555610db5565b600085815260208120601f198616915b82811015610e4f57888601518255948401946001909101908401610e30565b5085821015610e6d5787850151600019600388901b60f8161c191681555b5050505050600190811b01905550565b60208082526025908201527f444a5a53457363726f774c6f636b3a20657363726f7720646f6573206e6f7420604082015264195e1a5cdd60da1b606082015260800190565b67ffffffffffffffff831115610eda57610eda610d59565b610eee83610ee88354610cf8565b83610d6f565b6000601f841160018114610f225760008515610f0a5750838201355b600019600387901b1c1916600186901b178355610f7c565b600083815260209020601f19861690835b82811015610f535786850135825560209485019460019092019101610f33565b5086821015610f705760001960f88860031b161c19848701351681555b505060018560011b0183555b5050505050565b831515815260406020820152816040820152818360608301376000818301606090810191909152601f909201601f191601019291505056fea2646970667358221220343c3500c03b776d92eeda27c1792acf8ae9f6d9e3c0662f450f05c84712009764736f6c63430008140033",
  "linkReferences": {},
  "deployedLinkReferences": {}
}