{
  "_format": "hh-sol-artifact-1",
  "contractName": "DJZSLogicTrustScore",
  "sourceName": "contracts/DJZSLogicTrustScore.sol",
  "abi": [
    {
      "inputs": [],
      "stateMutability": "nonpayable",
      "type": "constructor"
    },
    {
      "inputs": [
        {
          "internalType": "address",
          "name": "owner",
          "type": "address"
        }
      ],
      "name": "OwnableInvalidOwner",
      "type": "error"
    },
    {
      "inputs": [
        {
          "internalType": "address",
          "name": "account",
          "type": "address"
        }
      ],
      "name": "OwnableUnauthorizedAccount",
      "type": "error"
    },
    {
      "anonymous": false,
      "inputs": [
        {
          "indexed": true,
          "internalType": "address",
          "name": "previousOwner",
          "type": "address"
        },
        {
          "indexed": true,
          "internalType": "address",
          "name": "newOwner",
          "type": "address"
        }
      ],
      "name": "OwnershipTransferred",
      "type": "event"
    },
    {
      "anonymous": false,
      "inputs": [
        {
          "indexed": true,
          "internalType": "address",
          "name": "agent",
          "type": "address"
        },
        {
          "indexed": false,
          "internalType": "uint256",
          "name": "riskScore",
          "type": "uint256"
        },
        {
          "indexed": false,
          "internalType": "string",
          "name": "verdict",
          "type": "string"
        },
        {
          "indexed": false,
          "internalType": "string[]",
          "name": "flags",
          "type": "string[]"
        },
        {
          "indexed": false,
          "internalType": "string",
          "name": "irysTxId",
          "type": "string"
        },
        {
          "indexed": false,
          "internalType": "uint256",
          "name": "timestamp",
          "type": "uint256"
        }
      ],
      "name": "ScoreUpdated",
      "type": "event"
    },
    {
      "anonymous": false,
      "inputs": [
        {
          "indexed": true,
          "internalType": "address",
          "name": "writer",
          "type": "address"
        }
      ],
      "name": "WriterAuthorized",
      "type": "event"
    },
    {
      "anonymous": false,
      "inputs": [
        {
          "indexed": true,
          "internalType": "address",
          "name": "writer",
          "type": "address"
        }
      ],
      "name": "WriterRevoked",
      "type": "event"
    },
    {
      "inputs": [
        {
          "internalType": "address",
          "name": "",
          "type": "address"
        },
        {
          "internalType": "uint256",
          "name": "",
          "type": "uint256"
        }
      ],
      "name": "agentHistory",
      "outputs": [
        {
          "internalType": "uint256",
          "name": "riskScore",
          "type": "uint256"
        },
        {
          "internalType": "string",
          "name": "verdict",
          "type": "string"
        },
        {
          "internalType": "uint256",
          "name": "timestamp",
          "type": "uint256"
        },
        {
          "internalType": "string",
          "name": "irysTxId",
          "type": "string"
        }
      ],
      "stateMutability": "view",
      "type": "function"
    },
    {
      "inputs": [
        {
          "internalType": "address",
          "name": "",
          "type": "address"
        }
      ],
      "name": "auditCount",
      "outputs": [
        {
          "internalType": "uint256",
          "name": "",
          "type": "uint256"
        }
      ],
      "stateMutability": "view",
      "type": "function"
    },
    {
      "inputs": [
        {
          "internalType": "address",
          "name": "writer",
          "type": "address"
        }
      ],
      "name": "authorizeWriter",
      "outputs": [],
      "stateMutability": "nonpayable",
      "type": "function"
    },
    {
      "inputs": [
        {
          "internalType": "address",
          "name": "",
          "type": "address"
        }
      ],
      "name": "authorizedWriters",
      "outputs": [
        {
          "internalType": "bool",
          "name": "",
          "type": "bool"
        }
      ],
      "stateMutability": "view",
      "type": "function"
    },
    {
      "inputs": [
        {
          "internalType": "address",
          "name": "agent",
          "type": "address"
        }
      ],
      "name": "getAuditHistory",
      "outputs": [
        {
          "internalType": "uint256",
          "name": "count",
          "type": "uint256"
        }
      ],
      "stateMutability": "view",
      "type": "function"
    },
    {
      "inputs": [
        {
          "internalType": "address",
          "name": "agent",
          "type": "address"
        },
        {
          "internalType": "uint256",
          "name": "index",
          "type": "uint256"
        }
      ],
      "name": "getAuditRecord",
      "outputs": [
        {
          "internalType": "uint256",
          "name": "riskScore",
          "type": "uint256"
        },
        {
          "internalType": "string",
          "name": "verdict",
          "type": "string"
        },
        {
          "internalType": "string[]",
          "name": "flags",
          "type": "string[]"
        },
        {
          "internalType": "uint256",
          "name": "timestamp",
          "type": "uint256"
        },
        {
          "internalType": "string",
          "name": "irysTxId",
          "type": "string"
        }
      ],
      "stateMutability": "view",
      "type": "function"
    },
    {
      "inputs": [
        {
          "internalType": "address",
          "name": "agent",
          "type": "address"
        }
      ],
      "name": "getLatestScore",
      "outputs": [
        {
          "internalType": "uint256",
          "name": "riskScore",
          "type": "uint256"
        },
        {
          "internalType": "string",
          "name": "verdict",
          "type": "string"
        },
        {
          "internalType": "uint256",
          "name": "timestamp",
          "type": "uint256"
        },
        {
          "internalType": "uint256",
          "name": "totalAudits",
          "type": "uint256"
        }
      ],
      "stateMutability": "view",
      "type": "function"
    },
    {
      "inputs": [
        {
          "internalType": "address",
          "name": "",
          "type": "address"
        }
      ],
      "name": "latestRiskScore",
      "outputs": [
        {
          "internalType": "uint256",
          "name": "",
          "type": "uint256"
        }
      ],
      "stateMutability": "view",
      "type": "function"
    },
    {
      "inputs": [
        {
          "internalType": "address",
          "name": "",
          "type": "address"
        }
      ],
      "name": "latestVerdict",
      "outputs": [
        {
          "internalType": "string",
          "name": "",
          "type": "string"
        }
      ],
      "stateMutability": "view",
      "type": "function"
    },
    {
      "inputs": [],
      "name": "owner",
      "outputs": [
        {
          "internalType": "address",
          "name": "",
          "type": "address"
        }
      ],
      "stateMutability": "view",
      "type": "function"
    },
    {
      "inputs": [],
      "name": "renounceOwnership",
      "outputs": [],
      "stateMutability": "nonpayable",
      "type": "function"
    },
    {
      "inputs": [
        {
          "internalType": "address",
          "name": "writer",
          "type": "address"
        }
      ],
      "name": "revokeWriter",
      "outputs": [],
      "stateMutability": "nonpayable",
      "type": "function"
    },
    {
      "inputs": [
        {
          "internalType": "address",
          "name": "newOwner",
          "type": "address"
        }
      ],
      "name": "transferOwnership",
      "outputs": [],
      "stateMutability": "nonpayable",
      "type": "function"
    },
    {
      "inputs": [
        {
          "internalType": "address",
          "name": "agent",
          "type": "address"
        },
        {
          "internalType": "uint256",
          "name": "riskScore",
          "type": "uint256"
        },
        {
          "internalType": "string",
          "name": "verdict",
          "type": "string"
        },
        {
          "internalType": "string[]",
          "name": "flags",
          "type": "string[]"
        },
        {
          "internalType": "string",
          "name": "irysTxId",
          "type": "string"
        }
      ],
      "name": "updateScore",
      "outputs": [],
      "stateMutability": "nonpayable",
      "type": "function"
    }
  ],
  "bytecode": "0x608060405234801561001057600080fd5b50338061003757604051631e4fbdf760e01b81526000600482015260240160405180910390fd5b61004081610060565b50336000908152600560205260409020805460ff191660011790556100b0565b600080546001600160a01b038381166001600160a01b0319831681178455604051919092169283917f8be0079c531659141344cd1fd0a4f28419497f9722a3daafe3b4186f6b6457e09190a35050565b6115a7806100bf6000396000f3fe608060405234801561001057600080fd5b50600436106100ea5760003560e01c806365a5854a1161008c5780638da5cb5b116100665780638da5cb5b1461022b578063a5be8f3114610246578063ca06b30814610266578063f2fde38b1461028657600080fd5b806365a5854a146101dc578063715018a6146101ff578063789cea861461020757600080fd5b8063526241a8116100c8578063526241a81461014a57806360edc2731461017d5780636199845d146101a057806362d6d4b6146101c957600080fd5b806306a10eb3146100ef57806323a2dea1146101045780634fef6a3814610137575b600080fd5b6101026100fd366004610e29565b610299565b005b610124610112366004610e29565b60046020526000908152604090205481565b6040519081526020015b60405180910390f35b610102610145366004610e29565b6102ea565b61016d610158366004610e29565b60056020526000908152604090205460ff1681565b604051901515815260200161012e565b61019061018b366004610e29565b61033e565b60405161012e9493929190610e91565b6101246101ae366004610e29565b6001600160a01b031660009081526004602052604090205490565b6101026101d7366004610f06565b610476565b6101ef6101ea366004610feb565b6107b9565b60405161012e9493929190611015565b610102610916565b61021a610215366004610feb565b61092a565b60405161012e959493929190611051565b6000546040516001600160a01b03909116815260200161012e565b610124610254366004610e29565b60026020526000908152604090205481565b610279610274366004610e29565b610bfb565b60405161012e91906110e3565b610102610294366004610e29565b610c95565b6102a1610cd3565b6001600160a01b038116600081815260056020526040808220805460ff19169055517ff38bbe104ea3e2aa830384a3a5faffe8334939e78b8be373cf93c217d99332e39190a250565b6102f2610cd3565b6001600160a01b038116600081815260056020526040808220805460ff19166001179055517f5aa116a7ad5a63e96554be6d59ba8300bb176b063e62172a2d96bc4baaa514d69190a250565b6001600160a01b0381166000908152600460205260408120546060908290819080820361038457505060408051602081019091526000808252935091508290508061046f565b6001600160a01b03861660009081526001602081905260408220906103a9908461110c565b815481106103b9576103b9611125565b906000526020600020906005020190508060000154816001018260030154848280546103e49061113b565b80601f01602080910402602001604051908101604052809291908181526020018280546104109061113b565b801561045d5780601f106104325761010080835404028352916020019161045d565b820191906000526020600020905b81548152906001019060200180831161044057829003601f168201915b50505050509250955095509550955050505b9193509193565b3360009081526005602052604090205460ff168061049e57506000546001600160a01b031633145b6105155760405162461bcd60e51b815260206004820152603760248201527f444a5a534c6f676963547275737453636f72653a2063616c6c6572206973206e60448201527f6f7420616e20617574686f72697a65642077726974657200000000000000000060648201526084015b60405180910390fd5b606487111561057c5760405162461bcd60e51b815260206004820152602d60248201527f444a5a534c6f676963547275737453636f72653a207269736b2073636f72652060448201526c06d75737420626520302d31303609c1b606482015260840161050c565b6001600160a01b0388166105dc5760405162461bcd60e51b815260206004820152602160248201527f444a5a534c6f676963547275737453636f72653a207a65726f206164647265736044820152607360f81b606482015260840161050c565b60006040518060a0016040528089815260200188888080601f01602080910402602001604051908101604052809392919081815260200183838082843760009201919091525050509082525060200161063586886111bc565b815260200142815260200184848080601f01602080910402602001604051908101604052809392919081815260200183838082843760009201829052509390945250506001600160a01b038c16815260016020818152604083208054808401825590845292819020855160059094020192835584015193945084939192508201906106c090826112e0565b50604082015180516106dc916002840191602090910190610d50565b5060608201516003820155608082015160048201906106fb90826112e0565b5050506001600160a01b03891660009081526002602090815260408083208b90556003909152902061072e8789836113a0565b506001600160a01b0389166000908152600460205260408120805460019290610758908490611461565b92505081905550886001600160a01b03167fbe8cc4c1a8ca5302802f125a2c944a4d3254a3471161d5dabe560164d517ae5989898989898989426040516107a698979695949392919061149d565b60405180910390a2505050505050505050565b600160205281600052604060002081815481106107d557600080fd5b9060005260206000209060050201600091509150508060000154908060010180546107ff9061113b565b80601f016020809104026020016040519081016040528092919081815260200182805461082b9061113b565b80156108785780601f1061084d57610100808354040283529160200191610878565b820191906000526020600020905b81548152906001019060200180831161085b57829003601f168201915b5050505050908060030154908060040180546108939061113b565b80601f01602080910402602001604051908101604052809291908181526020018280546108bf9061113b565b801561090c5780601f106108e15761010080835404028352916020019161090c565b820191906000526020600020905b8154815290600101906020018083116108ef57829003601f168201915b5050505050905084565b61091e610cd3565b6109286000610d00565b565b6001600160a01b03821660009081526004602052604081205460609081908390829086106109ab5760405162461bcd60e51b815260206004820152602860248201527f444a5a534c6f676963547275737453636f72653a20696e646578206f7574206f6044820152676620626f756e647360c01b606482015260840161050c565b6001600160a01b03871660009081526001602052604081208054889081106109d5576109d5611125565b9060005260206000209060050201905080600001548160010182600201836003015484600401838054610a079061113b565b80601f0160208091040260200160405190810160405280929190818152602001828054610a339061113b565b8015610a805780601f10610a5557610100808354040283529160200191610a80565b820191906000526020600020905b815481529060010190602001808311610a6357829003601f168201915b5050505050935082805480602002602001604051908101604052809291908181526020016000905b82821015610b54578382906000526020600020018054610ac79061113b565b80601f0160208091040260200160405190810160405280929190818152602001828054610af39061113b565b8015610b405780601f10610b1557610100808354040283529160200191610b40565b820191906000526020600020905b815481529060010190602001808311610b2357829003601f168201915b505050505081526020019060010190610aa8565b505050509250808054610b669061113b565b80601f0160208091040260200160405190810160405280929190818152602001828054610b929061113b565b8015610bdf5780601f10610bb457610100808354040283529160200191610bdf565b820191906000526020600020905b815481529060010190602001808311610bc257829003601f168201915b5050505050905095509550955095509550509295509295909350565b60036020526000908152604090208054610c149061113b565b80601f0160208091040260200160405190810160405280929190818152602001828054610c409061113b565b8015610c8d5780601f10610c6257610100808354040283529160200191610c8d565b820191906000526020600020905b815481529060010190602001808311610c7057829003601f168201915b505050505081565b610c9d610cd3565b6001600160a01b038116610cc757604051631e4fbdf760e01b81526000600482015260240161050c565b610cd081610d00565b50565b6000546001600160a01b031633146109285760405163118cdaa760e01b815233600482015260240161050c565b600080546001600160a01b038381166001600160a01b0319831681178455604051919092169283917f8be0079c531659141344cd1fd0a4f28419497f9722a3daafe3b4186f6b6457e09190a35050565b828054828255906000526020600020908101928215610d96579160200282015b82811115610d965782518290610d8690826112e0565b5091602001919060010190610d70565b50610da2929150610da6565b5090565b80821115610da2576000610dba8282610dc3565b50600101610da6565b508054610dcf9061113b565b6000825580601f10610ddf575050565b601f016020900490600052602060002090810190610cd091905b80821115610da25760008155600101610df9565b80356001600160a01b0381168114610e2457600080fd5b919050565b600060208284031215610e3b57600080fd5b610e4482610e0d565b9392505050565b6000815180845260005b81811015610e7157602081850181015186830182015201610e55565b506000602082860101526020601f19601f83011685010191505092915050565b848152608060208201526000610eaa6080830186610e4b565b6040830194909452506060015292915050565b60008083601f840112610ecf57600080fd5b50813567ffffffffffffffff811115610ee757600080fd5b602083019150836020828501011115610eff57600080fd5b9250929050565b60008060008060008060008060a0898b031215610f2257600080fd5b610f2b89610e0d565b975060208901359650604089013567ffffffffffffffff80821115610f4f57600080fd5b610f5b8c838d01610ebd565b909850965060608b0135915080821115610f7457600080fd5b818b0191508b601f830112610f8857600080fd5b813581811115610f9757600080fd5b8c60208260051b8501011115610fac57600080fd5b6020830196508095505060808b0135915080821115610fca57600080fd5b50610fd78b828c01610ebd565b999c989b5096995094979396929594505050565b60008060408385031215610ffe57600080fd5b61100783610e0d565b946020939093013593505050565b84815260806020820152600061102e6080830186610e4b565b84604084015282810360608401526110468185610e4b565b979650505050505050565b8581526000602060a08184015261106b60a0840188610e4b565b8381036040850152865180825282820190600581901b83018401848a0160005b838110156110b957601f198684030185526110a7838351610e4b565b9487019492509086019060010161108b565b505088606088015286810360808801526110d38189610e4b565b9c9b505050505050505050505050565b602081526000610e446020830184610e4b565b634e487b7160e01b600052601160045260246000fd5b8181038181111561111f5761111f6110f6565b92915050565b634e487b7160e01b600052603260045260246000fd5b600181811c9082168061114f57607f821691505b60208210810361116f57634e487b7160e01b600052602260045260246000fd5b50919050565b634e487b7160e01b600052604160045260246000fd5b604051601f8201601f1916810167ffffffffffffffff811182821017156111b4576111b4611175565b604052919050565b600067ffffffffffffffff808411156111d7576111d7611175565b8360051b60206111e881830161118b565b86815291850191818101903684111561120057600080fd5b865b848110156112855780358681111561121a5760008081fd5b8801601f368183011261122d5760008081fd5b81358881111561123f5761123f611175565b611250818301601f1916880161118b565b915080825236878285010111156112675760008081fd5b80878401888401376000908201870152845250918301918301611202565b50979650505050505050565b601f8211156112db57600081815260208120601f850160051c810160208610156112b85750805b601f850160051c820191505b818110156112d7578281556001016112c4565b5050505b505050565b815167ffffffffffffffff8111156112fa576112fa611175565b61130e81611308845461113b565b84611291565b602080601f831160018114611343576000841561132b5750858301515b600019600386901b1c1916600185901b1785556112d7565b600085815260208120601f198616915b8281101561137257888601518255948401946001909101908401611353565b50858210156113905787850151600019600388901b60f8161c191681555b5050505050600190811b01905550565b67ffffffffffffffff8311156113b8576113b8611175565b6113cc836113c6835461113b565b83611291565b6000601f84116001811461140057600085156113e85750838201355b600019600387901b1c1916600186901b17835561145a565b600083815260209020601f19861690835b828110156114315786850135825560209485019460019092019101611411565b508682101561144e5760001960f88860031b161c19848701351681555b505060018560011b0183555b5050505050565b8082018082111561111f5761111f6110f6565b81835281816020850137506000828201602090810191909152601f909101601f19169091010190565b8881526000602060a0818401526114b860a084018a8c611474565b8381036040850152878152818101600589901b820183018a60005b8b81101561154357848303601f190184528135368e9003601e190181126114f957600080fd5b8d01868101903567ffffffffffffffff81111561151557600080fd5b80360382131561152457600080fd5b61152f858284611474565b9588019594505050908501906001016114d3565b5050858103606087015261155881898b611474565b945050505050826080830152999850505050505050505056fea2646970667358221220deea78c4ff5e10c846af3af6c8a39f7ac292d4081929a3fc3796c4ec97845af864736f6c63430008140033",
  "linkReferences": {},
  "deployedLinkReferences": {}
}