{
  "_format": "hh-sol-artifact-1",
  "contractName": "DJZSStaking",
  "sourceName": "contracts/DJZSStaking.sol",
  "abi": [
    {
      "inputs": [
        {
          "internalType": "address",
          "name": "_stakingToken",
          "type": "address"
        },
        {
          "internalType": "uint256",
          "name": "_minimumStake",
          "type": "uint256"
        },
        {
          "internalType": "uint256",
          "name": "_lockDuration",
          "type": "uint256"
        }
      ],
      "stateMutability": "nonpayable",
      "type": "constructor"
    },
    {
      "inputs": [
        {
          "internalType": "address",
          "name": "owner",
          "type": "address"
        }
      ],
      "name": "OwnableInvalidOwner",
      "type": "error"
    },
    {
      "inputs": [
        {
          "internalType": "address",
          "name": "account",
          "type": "address"
        }
      ],
      "name": "OwnableUnauthorizedAccount",
      "type": "error"
    },
    {
      "inputs": [
        {
          "internalType": "address",
          "name": "token",
          "type": "address"
        }
      ],
      "name": "SafeERC20FailedOperation",
      "type": "error"
    },
    {
      "anonymous": false,
      "inputs": [
        {
          "indexed": false,
          "internalType": "uint256",
          "name": "newDuration",
          "type": "uint256"
        }
      ],
      "name": "LockDurationUpdated",
      "type": "event"
    },
    {
      "anonymous": false,
      "inputs": [
        {
          "indexed": false,
          "internalType": "uint256",
          "name": "newMinimum",
          "type": "uint256"
        }
      ],
      "name": "MinimumStakeUpdated",
      "type": "event"
    },
    {
      "anonymous": false,
      "inputs": [
        {
          "indexed": true,
          "internalType": "address",
          "name": "previousOwner",
          "type": "address"
        },
        {
          "indexed": true,
          "internalType": "address",
          "name": "newOwner",
          "type": "address"
        }
      ],
      "name": "OwnershipTransferred",
      "type": "event"
    },
    {
      "anonymous": false,
      "inputs": [
        {
          "indexed": true,
          "internalType": "address",
          "name": "staker",
          "type": "address"
        },
        {
          "indexed": false,
          "internalType": "uint256",
          "name": "amount",
          "type": "uint256"
        },
        {
          "indexed": false,
          "internalType": "string",
          "name": "reason",
          "type": "string"
        }
      ],
      "name": "Slashed",
      "type": "event"
    },
    {
      "anonymous": false,
      "inputs": [
        {
          "indexed": true,
          "internalType": "address",
          "name": "staker",
          "type": "address"
        },
        {
          "indexed": false,
          "internalType": "uint256",
          "name": "amount",
          "type": "uint256"
        },
        {
          "indexed": false,
          "internalType": "uint256",
          "name": "lockUntil",
          "type": "uint256"
        }
      ],
      "name": "Staked",
      "type": "event"
    },
    {
      "anonymous": false,
      "inputs": [
        {
          "indexed": true,
          "internalType": "address",
          "name": "staker",
          "type": "address"
        },
        {
          "indexed": false,
          "internalType": "uint256",
          "name": "amount",
          "type": "uint256"
        }
      ],
      "name": "Unstaked",
      "type": "event"
    },
    {
      "inputs": [
        {
          "internalType": "address",
          "name": "staker",
          "type": "address"
        }
      ],
      "name": "getStake",
      "outputs": [
        {
          "internalType": "uint256",
          "name": "amount",
          "type": "uint256"
        },
        {
          "internalType": "uint256",
          "name": "stakedAt",
          "type": "uint256"
        },
        {
          "internalType": "uint256",
          "name": "lockUntil",
          "type": "uint256"
        },
        {
          "internalType": "bool",
          "name": "active",
          "type": "bool"
        }
      ],
      "stateMutability": "view",
      "type": "function"
    },
    {
      "inputs": [
        {
          "internalType": "address",
          "name": "",
          "type": "address"
        }
      ],
      "name": "isStaker",
      "outputs": [
        {
          "internalType": "bool",
          "name": "",
          "type": "bool"
        }
      ],
      "stateMutability": "view",
      "type": "function"
    },
    {
      "inputs": [],
      "name": "lockDuration",
      "outputs": [
        {
          "internalType": "uint256",
          "name": "",
          "type": "uint256"
        }
      ],
      "stateMutability": "view",
      "type": "function"
    },
    {
      "inputs": [],
      "name": "minimumStake",
      "outputs": [
        {
          "internalType": "uint256",
          "name": "",
          "type": "uint256"
        }
      ],
      "stateMutability": "view",
      "type": "function"
    },
    {
      "inputs": [],
      "name": "owner",
      "outputs": [
        {
          "internalType": "address",
          "name": "",
          "type": "address"
        }
      ],
      "stateMutability": "view",
      "type": "function"
    },
    {
      "inputs": [],
      "name": "renounceOwnership",
      "outputs": [],
      "stateMutability": "nonpayable",
      "type": "function"
    },
    {
      "inputs": [
        {
          "internalType": "uint256",
          "name": "_lockDuration",
          "type": "uint256"
        }
      ],
      "name": "setLockDuration",
      "outputs": [],
      "stateMutability": "nonpayable",
      "type": "function"
    },
    {
      "inputs": [
        {
          "internalType": "uint256",
          "name": "_minimumStake",
          "type": "uint256"
        }
      ],
      "name": "setMinimumStake",
      "outputs": [],
      "stateMutability": "nonpayable",
      "type": "function"
    },
    {
      "inputs": [
        {
          "internalType": "address",
          "name": "staker",
          "type": "address"
        },
        {
          "internalType": "uint256",
          "name": "amount",
          "type": "uint256"
        },
        {
          "internalType": "string",
          "name": "reason",
          "type": "string"
        }
      ],
      "name": "slash",
      "outputs": [],
      "stateMutability": "nonpayable",
      "type": "function"
    },
    {
      "inputs": [
        {
          "internalType": "uint256",
          "name": "amount",
          "type": "uint256"
        }
      ],
      "name": "stake",
      "outputs": [],
      "stateMutability": "nonpayable",
      "type": "function"
    },
    {
      "inputs": [
        {
          "internalType": "address",
          "name": "",
          "type": "address"
        }
      ],
      "name": "stakes",
      "outputs": [
        {
          "internalType": "uint256",
          "name": "amount",
          "type": "uint256"
        },
        {
          "internalType": "uint256",
          "name": "stakedAt",
          "type": "uint256"
        },
        {
          "internalType": "uint256",
          "name": "lockUntil",
          "type": "uint256"
        },
        {
          "internalType": "bool",
          "name": "active",
          "type": "bool"
        }
      ],
      "stateMutability": "view",
      "type": "function"
    },
    {
      "inputs": [],
      "name": "stakingToken",
      "outputs": [
        {
          "internalType": "contract IERC20",
          "name": "",
          "type": "address"
        }
      ],
      "stateMutability": "view",
      "type": "function"
    },
    {
      "inputs": [],
      "name": "totalStaked",
      "outputs": [
        {
          "internalType": "uint256",
          "name": "",
          "type": "uint256"
        }
      ],
      "stateMutability": "view",
      "type": "function"
    },
    {
      "inputs": [
        {
          "internalType": "address",
          "name": "newOwner",
          "type": "address"
        }
      ],
      "name": "transferOwnership",
      "outputs": [],
      "stateMutability": "nonpayable",
      "type": "function"
    },
    {
      "inputs": [],
      "name": "unstake",
      "outputs": [],
      "stateMutability": "nonpayable",
      "type": "function"
    }
  ],
  "bytecode": "0x60a060405234801561001057600080fd5b50604051610cff380380610cff83398101604081905261002f916100c8565b338061005557604051631e4fbdf760e01b81526000600482015260240160405180910390fd5b61005e81610078565b506001600160a01b0390921660805260015560025561010b565b600080546001600160a01b038381166001600160a01b0319831681178455604051919092169283917f8be0079c531659141344cd1fd0a4f28419497f9722a3daafe3b4186f6b6457e09190a35050565b6000806000606084860312156100dd57600080fd5b83516001600160a01b03811681146100f457600080fd5b602085015160409095015190969495509392505050565b608051610bc461013b600039600081816101f301528181610405015281816105f1015261073a0152610bc46000f3fe608060405234801561001057600080fd5b50600436106100f55760003560e01c8063715018a6116100975780638da5cb5b116100665780638da5cb5b14610278578063a694fc3a14610289578063ec5ffac21461029c578063f2fde38b146102a557600080fd5b8063715018a6146101e657806372f702f3146101ee5780637a7664601461022d578063817b1cd21461026f57600080fd5b80632def6620116100d35780632def6620146101855780634eb665af1461018d578063678b3ee2146101a05780636f1e8533146101b357600080fd5b806304554443146100fa57806316934fc414610116578063233e990314610170575b600080fd5b61010360025481565b6040519081526020015b60405180910390f35b61014e610124366004610a54565b60046020526000908152604090208054600182015460028301546003909301549192909160ff1684565b604080519485526020850193909352918301521515606082015260800161010d565b61018361017e366004610a76565b6102b8565b005b6101836102fc565b61018361019b366004610a76565b610466565b6101836101ae366004610a8f565b6104a3565b6101d66101c1366004610a54565b60056020526000908152604090205460ff1681565b604051901515815260200161010d565b610183610664565b6102157f000000000000000000000000000000000000000000000000000000000000000081565b6040516001600160a01b03909116815260200161010d565b61014e61023b366004610a54565b6001600160a01b03166000908152600460205260409020805460018201546002830154600390930154919390929160ff1690565b61010360035481565b6000546001600160a01b0316610215565b610183610297366004610a76565b610678565b61010360015481565b6101836102b3366004610a54565b61082f565b6102c061086d565b60018190556040518181527ff4045d7dd317de89564c3f12c35961242ed2a4dce3ae4e7a75847ffa04bb0834906020015b60405180910390a150565b336000908152600460205260409020600381015460ff166103645760405162461bcd60e51b815260206004820152601c60248201527f444a5a535374616b696e673a206e6f20616374697665207374616b650000000060448201526064015b60405180910390fd5b80600201544210156103b85760405162461bcd60e51b815260206004820152601960248201527f444a5a535374616b696e673a207374696c6c206c6f636b656400000000000000604482015260640161035b565b80546003808301805460ff1990811690915533600090815260056020526040812080549092169091558154839291906103f2908490610b2c565b9091555061042c90506001600160a01b037f000000000000000000000000000000000000000000000000000000000000000016338361089a565b60405181815233907f0f5bb82176feb1b5e747e28471aa92156a04d9f3ab9f45f28e2d704232b93f75906020015b60405180910390a25050565b61046e61086d565b60028190556040518181527f3e062f634a950eae456fa5f8fb53a4f59f55039983bd73df7a34a313b75443d4906020016102f1565b6104ab61086d565b6001600160a01b0384166000908152600460205260409020600381015460ff166105175760405162461bcd60e51b815260206004820152601c60248201527f444a5a535374616b696e673a206e6f20616374697665207374616b6500000000604482015260640161035b565b80548411156105685760405162461bcd60e51b815260206004820181905260248201527f444a5a535374616b696e673a20736c6173682065786365656473207374616b65604482015260640161035b565b8381600001600082825461057c9190610b2c565b9250508190555083600360008282546105959190610b2c565b909155505080546000036105d25760038101805460ff199081169091556001600160a01b0386166000908152600560205260409020805490911690555b6106186105e76000546001600160a01b031690565b6001600160a01b037f000000000000000000000000000000000000000000000000000000000000000016908661089a565b846001600160a01b03167f7e947095ed288d8885423bdaef4015b7420ffa9b84d62ef67c402e8bc36a8ea985858560405161065593929190610b45565b60405180910390a25050505050565b61066c61086d565b61067660006108d4565b565b6001548110156106ca5760405162461bcd60e51b815260206004820181905260248201527f444a5a535374616b696e673a2062656c6f77206d696e696d756d207374616b65604482015260640161035b565b3360009081526004602052604090206003015460ff161561072d5760405162461bcd60e51b815260206004820152601b60248201527f444a5a535374616b696e673a20616c7265616479207374616b65640000000000604482015260640161035b565b6107626001600160a01b037f000000000000000000000000000000000000000000000000000000000000000016333084610924565b6000600254426107729190610b7b565b6040805160808101825284815242602080830191825282840185815260016060850181815233600090815260048552878120965187559451868301559151600286015590516003948501805491151560ff1992831617905560059092529382208054909116909317909255805492935084929091906107f2908490610b7b565b9091555050604080518381526020810183905233917f1449c6dd7851abc30abf37f57715f492010519147cc2652fbc38202c18a6ee90910161045a565b61083761086d565b6001600160a01b03811661086157604051631e4fbdf760e01b81526000600482015260240161035b565b61086a816108d4565b50565b6000546001600160a01b031633146106765760405163118cdaa760e01b815233600482015260240161035b565b6108a78383836001610960565b6108cf57604051635274afe760e01b81526001600160a01b038416600482015260240161035b565b505050565b600080546001600160a01b038381166001600160a01b0319831681178455604051919092169283917f8be0079c531659141344cd1fd0a4f28419497f9722a3daafe3b4186f6b6457e09190a35050565b6109328484848460016109c6565b61095a57604051635274afe760e01b81526001600160a01b038516600482015260240161035b565b50505050565b60405163a9059cbb60e01b60008181526001600160a01b038616600452602485905291602083604481808b5af1925060016000511483166109ba5783831516156109ad573d6000823e3d81fd5b6000873b113d1516831692505b60405250949350505050565b6040516323b872dd60e01b60008181526001600160a01b038781166004528616602452604485905291602083606481808c5af192506001600051148316610a26578383151615610a19573d6000823e3d81fd5b6000883b113d1516831692505b60405250600060605295945050505050565b80356001600160a01b0381168114610a4f57600080fd5b919050565b600060208284031215610a6657600080fd5b610a6f82610a38565b9392505050565b600060208284031215610a8857600080fd5b5035919050565b60008060008060608587031215610aa557600080fd5b610aae85610a38565b935060208501359250604085013567ffffffffffffffff80821115610ad257600080fd5b818701915087601f830112610ae657600080fd5b813581811115610af557600080fd5b886020828501011115610b0757600080fd5b95989497505060200194505050565b634e487b7160e01b600052601160045260246000fd5b81810381811115610b3f57610b3f610b16565b92915050565b83815260406020820152816040820152818360608301376000818301606090810191909152601f909201601f1916010192915050565b80820180821115610b3f57610b3f610b1656fea2646970667358221220a55fd03dcb9b37111740c0ada04e2329cab798b8ab6df591e64ee0e720c59b3e64736f6c63430008140033",
  "linkReferences": {},
  "deployedLinkReferences": {}
}